:020000040800F2
:10400000FFFF0120ED510108F5D70008F7D70008A0
:1040100025D900083DD9000855D900080000000046
:10402000000000000000000000000000510E030826
:104030006DD9000800000000F10E0308E5D7000864
:104040006D5201086D5201086D5201086D52010850
:104050006D5201086D520108C9AF0008E9AF0008B0
:1040600009B0000829B000084DB0000825C10008BB
:104070006D52010849C100086D5201086D520108D6
:10408000BDFF0008A1E400086D5201086D5201084F
:104090006D5201086D5201086D52010875B000089B
:1040A0006D5201086D5201086D5201086D520108F0
:1040B0006D520108E1A900086D52010819C10008FC
:1040C0000DC100086D5201086D5201086D520108C2
:1040D0006D5201086D52010801E5000805E1000874
:1040E00051B100086D5201086D5201086D5201086E
:1040F0006D52010845AD00086D5201086D5201086E
:104100006D5201086D520108ADA800086D520108FA
:104110006D5201086D5201086D520108915101085C
:10412000914E00086D5201086D5201086D52010850
:104130006D5201086D5201086D5201086D5201085F
:104140006D5201086D5201086D520108E9D700084F
:10415000294E00086D52010879EB000875EB000844
:104160003DC1000831C100086D5201086D520108BF
:104170006D5201086D5201086D5201086D5201081F
:084180006D5201086D520108A7
:1041A000024B1B680022C3E92A027047000000206E
:1041B0000B4B0C481968D1E92A2310B40A4C00FBB8
:1041C00002F004FB0300A2FB043404445A1C44F133
:1041D0000000C1E92A205DF8044B20F00040704740
:1041E000000000202DF451582D7F954C830710B509
:1041F000044610D10268A2F1013323EA020313F04E
:10420000803F08D150F8042FA2F1013323EA0203C2
:1042100013F0803FF6D003781BB110F8013F002B5C
:10422000FBD100F0DBF9204610BD00BFC9B200F0A1
:104230000303002935D07BB10378002B57D0994276
:1042400052D0431C05E013F8012B002A4DD08A42BE
:104250004AD09A071846F6D170B441EA012604689C
:1042600046EA064601E050F8044F86EA0405A5F147
:104270000132A4F1013322EA050223EA04031343C5
:1042800013F0803FEFD0037843B1994202D106E0AA
:104290008B4204D010F8013F002BF9D1184670BCB6
:1042A00070474BB10378FBB1431C02E00278013345
:1042B000D2B199071846F9D10268A2F1013323EA75
:1042C000020313F0803F08D150F8042FA2F101330C
:1042D00023EA020313F0803FF6D0037823B110F8ED
:1042E000013F002BFBD170477047104670471846BE
:1042F000704700BF00000000000000000000000048
:10430000A2EB0300704700BF02780B78012A28BF98
:104310009A42F5D16DE9044540EA0104CDE902670E
:104320006FF0000C4FEA447212B380EA010414F0FB
:10433000070F6AD100F0070420F0070004F003051E
:1043400021F007014FEAC505F0E8042314F0040F3B
:10435000F1E804670CFA05F462EA040266EA04066E
:104360000AD063EA0403624667EA0407664603E08C
:10437000F0E80423F1E8046782FA4CF582EA0604C7
:10438000A4FA8CF46CBB83FA4CF583EA0705A5FA12
:104390008CF595B950E9022351E9026782FA4CF590
:1043A00082EA0604A4FA8CF483FA4CF583EA070542
:1043B000A5FA8CF52543DBD09CB92DBAB5FA85F466
:1043C00024F0070427FA04F1DDE9026723FA04F375
:1043D00003F0FF0001F0FF01FDE80445A0EB010040
:1043E000704724BAB4FA84F424F0070426FA04F1DE
:1043F000DDE9026722FA04F202F0FF0001F0FF019A
:10440000FDE80445A0EB0100704714F0030F3CD118
:1044100010F0030428D150F8082B51F8083B82FA19
:104420004CF582EA0305A5FA8CF55DB950F8042C29
:1044300051F8043C82FA4CF582EA0305A5FA8CF5A2
:10444000002DE8D02DBAB5FA85F424F0070423FA3C
:1044500004F122FA04F202F0FF0001F0FF01FDE88E
:104460000445A0EB010070474FEAC40420F00300AC
:1044700050F8082B21F0030151F8083B0CFA04F422
:1044800062EA040263EA0403C9E710F003041AD0E5
:10449000A1EB040120F00300E40750F8042B06D040
:1044A0000FD28B785FFAA2F4E41A06D12BB1CB7845
:1044B0005FFAB2F4E41A00D11BB920465DF8104B44
:1044C000704701F1040150F8042BCC0721F00301DF
:1044D00051F8043B48D824D222F07F4482FA4CF5AC
:1044E00094EA1325A5FA8CF50AD165B951F8043B75
:1044F00084EA0204B4EB036F0ED150F8042BEBE70F
:104500004FEA132355E035F07F454DD10878FDE89B
:104510000445C0F1000070474FEA126203F0FF0348
:1045200047E002EA1C4482FA4CF594EA1345A5FAE6
:104530008CF50AD165B951F8043B84EA0204B4EB66
:10454000034F0CD150F8042BEBE74FEA134330E054
:1045500015EA1C4528D10B884FEA124229E04FEAA0
:10456000124203EA1C4324E002F0FF0482FA4CF5F5
:1045700094EA1365A5FA8CF50AD165B951F8043BA4
:1045800084EA0204B4EB032F09D150F8042BEBE7C3
:104590004FEA13630DE015F0FF0F05D10B684FEAEA
:1045A000122223F07F4304E04FF00000FDE80445B1
:1045B000704712BA1BBA82FA4CF482EA0304A4FAD6
:1045C0008CF5B5FA85F402FA04F203FA04F34FEA23
:1045D0001260FDE80445A0EB1360704780EA010219
:1045E000844612F0030F4FD111F0030F32D14DF872
:1045F000044D11F0040F51F8043B0BD0A3F101322C
:104600009A4312F0803F04BF4CF8043B51F8043B3E
:1046100016D100BF51F8044BA3F101329A4312F0B6
:10462000803FA4F101320BD14CF8043BA24312F0BD
:10463000803F04BF51F8043B4CF8044BEAD02346BA
:104640000CF8013B13F0FF0F4FEA3323F8D15DF86C
:10465000044B704711F0010F06D011F8012B0CF834
:10466000012B002A08BF704711F0020FBFD031F8AC
:10467000022B12F0FF0F16BF2CF8022B8CF8002033
:1046800012F47F4FB3D1704711F8012B0CF8012BB6
:10469000002AF9D1704700BF002A46D040EA010342
:1046A00013F00303F0B425D1032A23D904680D685D
:1046B000AC423CD1043A35D0A4F1013525EA0404DA
:1046C00014F0803F2ED1071D0D1D0DE057F8043B5F
:1046D0000E68A3F10134B34224EA030427D1043A5B
:1046E00020D014F0803F1DD1032A2946384605F119
:1046F0000405EBD803780D789D4202F1FF360ED108
:1047000086B17BB1044602E082180BD053B114F895
:10471000013F11F8015FAB42A6EB0402F4D0581B35
:10472000F0BC70470020F0BC70471046704703781B
:104730000D789D4202F1FF36E3D0F0E770B440EA15
:104740000104A30727D1032A25D90B46064619469B
:1047500053F8045BA5F1013424EA050414F0803F0A
:1047600006D1043A032A46F8045B1946EFD882B111
:1047700033460C7803F8014B551E74B132442E4475
:1047800005E011F8014FF51A03F8014B2CB19A42DC
:10479000F7D170BC70470646E9E7002DF9D01D44FB
:1047A000002203F8012BAB42FBD170BC704700BF65
:1047B000024B1A6801235C3200F002B800000020AE
:1047C000F0B418B307460D4617F8016B01E0A64296
:1047D00017D015F8014B002CF9D1E6B117F8015BA1
:1047E0000C4601E0002BF9D014F8013B9D42F9D1B1
:1047F00055B1002307F8013C176006463046F0BC6F
:10480000704763B13846DDE72F46F5E710680028AA
:10481000D8D10646F2E730461660F0BC7047176004
:1048200006460370EAE700BF0123FFF7C9BF00BFD8
:10483000012B2DE9F84F41D0242B98463ED80F4646
:10484000DFF81CC100E02F463D4615F8014B1CF86F
:10485000046016F00806F6D12D2C6CD02B2C0ABF64
:1048600095F800B0A346BD1C002B46D0102B57D0A6
:10487000002E14BF4FF000496FF000490027B9FB2C
:10488000F8FEBC4608FB1E9A07E0E64513D32FD07E
:104890000CFB084C012715F801BBABF13004092CC7
:1048A00005D9ABF14104192C0FD8ABF13704A34261
:1048B00013DD002FE9DA4FF0FF37ECE700F06CF87A
:1048C000162303600020BDE8F88FABF16104192CBA
:1048D00003D8ABF15704A342EBDC002F25DB0EB16C
:1048E000CCF1000C0AB177BB11606046BDE8F88FCF
:1048F000A245CDDA4FF0FF37CDE7BBF1300F03D043
:104900004FF00A084346B3E72B7803F0DF03582B38
:104910001BD14FF0100895F801B043460235A7E7C8
:10492000BBF1300F15D09846A2E7222303603AB1BD
:10493000691ECC46D8E795F800B00126BD1C93E768
:10494000CC466046D2E7E146F2E74FF0080843461E
:104950008EE72C7804F0DF04582CDAD0984687E7ED
:10496000AD1A040864E700BF10B4044C13460A46AD
:10497000014620685DF8044B5AE700BF00000020A4
:1049800010B4044C13460A46014620685DF8044BF7
:104990004EE700BF00000020014B1868704700BFC1
:1049A0000000002013B5C3B20C20154A5843141858
:1049B0000121105812F096FE684612F0D7FC2389A8
:1049C000009340F203136068ADF804306946002399
:1049D0008DF8073012F088FC01230A48A17A1A46A4
:1049E00012F08DFA074812F0C8FA0648022112F0B8
:1049F000CCFA0028F9D0034812F0C4FA02B010BD76
:104A0000B41B0408002101407FB5144A01238340F0
:104A100008281360124B1AD00A2815D0062819D07E
:104A200000221A601B6800930023CDE90233ADF821
:104A3000043004930B48012369468DF8143012F0BA
:104A40000BFA07B05DF804FB4FF08072E9E74FF016
:104A50000072E6E74FF04072E3E700BF2825002030
:104A60002C2500200021014000B58BB012F0E6F9A2
:104A700004A812F017FA684612F032FA01214FF436
:104A8000007012F053FE00236846CDE90033CDE9F3
:104A9000023312F011FA0C20FFF7B6FF0348012190
:104AA00012F024FA0BB05DF804FB00BF00210140B6
:104AB00038B5FFF777FF3CF02DF80022094B3CF0AA
:104AC000D0FA094B044618680D463CF0A1F802469E
:104AD0000B46204629463CF0C6FA3CF07FFD00EE2E
:104AE000100A38BD0000084028250020F7B50C2327
:104AF000164DC4B26343EF18E8580E46012112F078
:104B0000F1FD3A8900920023012E0CBF01221A46C2
:104B1000ADF806308DF804200DD18DF806300C204C
:104B200000FB0455012368688DF80530694612F0D2
:104B3000DBFB03B0F0BD022E03D0032EEFD1022326
:104B400000E001238DF80730E9E700BFB41B04083B
:104B5000054B0C22C0B202FB00300A1E18BF012216
:104B60000189406812F012BCB41B040808B5064B5A
:104B70000C22C0B202FB00300189406812F0FCFB3D
:104B8000431E5842584108BDB41B040810B50446E2
:104B900086B0104812F00AFE4FF482720023ADF87E
:104BA00008200C48ADF806304FF400720DF10601F4
:104BB000ADF80A30ADF80C30ADF80E30ADF810207D
:104BC000ADF81430ADF81630ADF8124012F04AFED0
:104BD00006B010BD0030014070B5032292B0002134
:104BE00001202CF0B5FC414B03221860002101206C
:104BF0002CF0AEFC3E4B186001202CF0BCFD3D4B70
:104C0000012118604FF4805012F090FD01210846F8
:104C100012F068FD01214FF4800012F063FD0522BF
:104C20001146354812F0B7FB33480522062112F031
:104C3000B2FB31480522072112F0ADFB2F4B2E4865
:104C4000202201A9CDE9012312F04EFB802301A906
:104C500029480193402612F047FB01A926480196F6
:104C600012F042FB4FF4806300240993244B049319
:104C70004FF0C0654FF40033214622480D93CDE933
:104C80000E4410940B940C9411940A940894079475
:104C900005940395069612F03DFA03A9194812F0FF
:104CA0000FFA214618480694039512F033FA03A927
:104CB000154812F005FA07238DF801308DF80240EF
:104CC0004423012468468DF800308DF8034012F02B
:104CD00091FC382368468DF8003012F08BFC2820B8
:104CE000FFF754FF094B1C7012B070BD88250020DF
:104CF00078250020802500200000024002020002EA
:104D00000C300140886402401064024031250020CC
:104D1000F8B501F17043B3F5803F06460C461746DF
:104D200004D22B492B48E22228F0CCFB07F1704338
:104D3000B3F5803F04D226492648E32228F0C2FB7F
:104D4000254DEC60254C6E600122E760102128465D
:104D5000666012F025FA01221021204612F020FA96
:104D60001F49284612F004FA1E49204612F000FAA4
:104D70000121284612F0CEF90121204612F0CAF98D
:104D800019480122022112F098FD0122114616480D
:104D900012F093FD1448012112F083FD134B4FF0E4
:104DA000FF3118682CF06EFE01280ED1104B4FF029
:104DB000FF3118682CF066FE431E5C425C410A48D5
:104DC000002112F06EFD2046F8BD0024F7E700BF79
:104DD000501C0408D3620408886402401064024036
:104DE000400F00203D008010003001408825002049
:104DF0007825002010B5064B04464FF0FF311868A7
:104E00002CF040FE2046BDE81040FFF7BFBE00BFBB
:104E1000802500200348002300681A4619462CF01C
:104E2000CFBB00BF8025002013B5002422461348C5
:104E30000194102112F0B4F91149104812F0FAF956
:104E40000F490E4812F094F922460E48022112F042
:104E500034FD0A48214612F05DF90B4B01A9186890
:104E60002CF00AFD019B3BB1084B4FF080521A60B9
:104E7000BFF34F8FBFF36F8F02B010BD8864024045
:104E800000080020003001408825002004ED00E0EB
:104E900013B50024224613480194102112F080F922
:104EA0001149104812F0C6F90F490E4812F060F986
:104EB00022460E48012112F000FD0A48214612F058
:104EC00029F90B4B01A918682CF0D6FC019B3BB1CA
:104ED000084B4FF080521A60BFF34F8FBFF36F8FB4
:104EE00002B010BD106402402000001000300140EC
:104EF0007825002004ED00E0064A13784BB9064BF4
:104F000006491960064B5B1A06499B100B6001238A
:104F100013707047942500208C2500207CF1040834
:104F2000C8F104089025002008B5FFF7E5FF014B04
:104F3000186808BD9025002070B50D460446FFF79F
:104F4000DBFF094B1A68094B196800239A4201DC00
:104F5000002070BD51F823000678A64202D14678A1
:104F6000AE42F6D00133F1E7902500208C250020D9
:104F70002DE9F0410646FFF7BFFF0B4B1F680B4BB7
:104F8000D3F800800024A74203DC00252846BDE8B2
:104F9000F08158F8245030466968FFF7B5F90028C9
:104FA000F4D00134EFE700BF902500208C250020CD
:104FB00030B5034644680020844202DC4FF0FF30E5
:104FC00030BD1A68155C8D42FAD002445278023224
:104FD0001044F1E7014B1868704700BF9825002086
:104FE000044B1B688342C3BF034B7C2202FB00308F
:104FF00000207047982500200000001008B5FFF73A
:10500000D7FFC043C00F08BDF8B5044617461D467C
:10501000FFF7CEFF061E10DB21688B196C1E5A7835
:105020009442A8BF144602362246314438463BF02B
:10503000CCFE00233B552046F8BD00233B704FF0CB
:10504000FF34F8E730B51F4C8BB02368CDF80A3039
:10505000A388ADF80E300546A3798DF810300021F5
:1050600017220DF111003CF0C7F854F81E0F009004
:10507000A388ADF8043005F1700400230121204617
:10508000CDF80630FFF7BAFF30B11E230DF10A024A
:1050900001212046FFF7B8FF02212046FFF7AEFFAF
:1050A00028B10A236A4602212046FFF7ADFFAA6F06
:1050B000054B9A4203D10549054828F09FFE0BB0E5
:1050C00030BD00BF4C19040880200408AF1C040840
:1050D00079C301082DE9F04FA54B8BB01D7800AFC7
:1050E0007B60002D40F086807D720CF0BDFC07F1E6
:1050F00009000CF0FFFC064610B39E4CDFF8BCA282
:10510000DFF87C92DFF8B8B2A8467B7A98451DDAC2
:105110002346702200215FFA88F00CF031FD002850
:1051200000F0B2802378EB2B68D09349484628F0F2
:1051300065FE42465946484628F060FE002697E044
:105140008E498F4828F05AFE7E7201268D4CD4F885
:10515000008098F800304BB38B4904224046FFF79B
:105160009BFA18B3424689498548DFF858A2DFF810
:105170001082DFF800B228F041FE216839603A233E
:1051800008467B813BF066FC083020F00700E946CA
:10519000ADEB000D39686846FFF720FA07F10A0108
:1051A0006846FFF705FB002877D1CD46784C0EB155
:1051B0007B7A23606F4E724A4FF00008B146C346B7
:1051C000C246012120688045C0F28E8001B921606D
:1051D000DFF8F491DFF8F4B1DFF8A4A14FF0000894
:1051E00023689845C0F2A8800DB1002323607A6837
:1051F000012313702C37BD46BDE8F08F07212046F0
:1052000028F013FCE379C0B2834201D061498DE7F5
:10521000237A0BB1604989E7617A04F10800023111
:1052200028F003FC534A617A7C2303FB08230B44D8
:10523000C2B29B7A9A4204D05849484628F0DEFD13
:1052400077E704F10A03C4E91C3107F10A021E23BF
:10525000012104F17000FFF7D7FE607960B1A179F8
:10526000FFF76AFE00B94E48A0672046FFF7EAFE46
:1052700008F101087C3448E7BB7A002BF3D007F132
:105280000A00FFF775FEEDE7386042465146484692
:1052900028F0B4FD3B681E46EAE72060FFF768FE91
:1052A00050B922683F49404628F0A8FD07F10A019D
:1052B0000020FFF77DFA76E7C36913B9036A002B74
:1052C000F4D07B7A042B0AD80133DBB27C227B72C8
:1052D000013B02FB03B3344922689867E3E7514678
:1052E000404628F08BFDE1E7D9F8780080681AEA9B
:1052F000000008D02D4B184205D02D49104628F04B
:105300007DFD1F4A0021D9F87800C0681BEA000F14
:1053100005D02849104628F071FD194A0021D9F816
:10532000783098684AEA000AD86808F101084BEA20
:10533000000B09F17C0945E7BDB9B36F1B7C23B1B4
:1053400099F800205AB989F800301B4AB36F1178D8
:105350005B7C0B43137008F101087C3640E79342F5
:10536000F3D05946504628F049FD0125EDE700BF2E
:105370009C25002000000010301D0408DE1C0408DD
:1053800079C30108300400207E1E0408831E04082F
:10539000982500205A1D0408891D0408B91D040819
:1053A00080200408AA1E0408E71E0408F3E3FFFF98
:1053B000531F0408CC1F04089E250020361E040835
:1053C000EC1D0408171F04089D2500204320040835
:1053D000014B1878704700BF9D250020014B1878BD
:1053E000704700BF9E2500204FF0A040704700008E
:1053F0004FF4883070470000014B1868704700BFB9
:105400002434002041F6FF7070474FF480507047FD
:1054100041F2F4007047032970B50446154603D8DD
:10542000036903B15A5470BD0429FCD1EA0702D5BF
:10543000036A03B19847AB07F5D5636A002BF2D036
:10544000BDE87040184700002DE9F04704460E46BD
:105450001746FFF7BFFDB4F1805F054622D24FF03B
:1054600000081AE0B4F5805F14D3A4F58059B5EBB9
:10547000991F4FEA99100DDDFFF7B2FD836F17F802
:10548000082019F0200F0CBF5869986909F01F0116
:10549000FFF7C1FF08F101080134B045E2D3012054
:1054A000BDE8F087230F013B4500B5EB530F4FEAF2
:1054B000530801DC0020F3E7404603F00105FFF745
:1054C0008FFD826F536905B19369002BF2D0D3F839
:1054D00000E0BEF1000FEDD004F17040A0EB487089
:1054E0003A463146A0EB0570F446BDE8F047604708
:1054F00003461046CA18B2F5005F03D20A4699B2B5
:1055000005F0C0BC0020704710B45418702C04D8AB
:105510005DF8044B89B20CF097BB00205DF8044B9A
:105520007047000018F0D8B8B0F5805FF8B50D46A8
:1055300011461BD2B0F5806F35D255FA80F3342B6B
:10554000C2B230D8040A342318486343C61803F59E
:105550006D731344002786F8E4732A4618443BF021
:1055600034FC204622F062FA0120F8BDA0F58050FC
:10557000B0F5806F17D255FA80F33D2BC2B212D826
:10558000040A3D2309486343C61803F530731344E6
:10559000002786F8FC722A4618443BF016FCE0B25D
:1055A00022F00CFBE0E70020DFE700BF08550120F8
:1055B0002DE9F3411E468368044690460F469847FE
:1055C00010F0010F0CBF01250325820748BF45F0ED
:1055D00020054307636848BF45F040050BB145F01F
:1055E000040523680BB145F00805237B0BB145F09A
:1055F00010053570236A626A003B18BF01230AB1A7
:1056000043F0020373706369C6F80230A369C6F8F9
:105610000630C6F80A801122394606F10E00FFF75F
:105620008DF8E369A3B138463BF014FA33183A22F7
:105630009A73E1690191054608463BF00BFA0F3574
:1056400001990246701902B0BDE8F0413BF0BDBBC4
:1056500002B0BDE8F08100002DE9F04F2DED028B86
:1056600083B000AF05460C469046FFF7B3FCB5F19A
:10567000805F78605FD22246002140463BF0BCFD4F
:10568000002D55D134B901200C37BD46BDEC028B3D
:10569000BDE8F08F0323013C88F80030E4B24FF0FE
:1056A0000109002CEFD06B4608EE103A7A6805EB42
:1056B00009033B60013BB2EB931F4FEA9316E2DD17
:1056C00090B03046FFF78CFC8246002140226846AD
:1056D0003BF092FDDAF878104869EB4630B172077A
:1056E00049686B4602F18052FFF762FFDAF87810E2
:1056F000886930B1721C49680BF120035207FFF72B
:1057000057FF3B68B1010131591AC1F1400AA24566
:10571000A8BFA24608EB0900524659443BF055FB8E
:1057200018EE103AA4EB0A04E4B2D1449D46B8E75F
:105730004FF00009B5E77A682B0F013B5000B0EB42
:10574000530F4FEA530901DC00209DE7484603F060
:105750000106FFF745FC826F536906B19369002B80
:10576000F2D05B68002BEFD005F17040A0EB4970E0
:1057700042462146A0EB0670984785E7F0B5B0F5A4
:10578000805F85B004460E46154619D24FF48071ED
:105790002A4802F0C3FC2949013C0023B34202DB42
:1057A000012005B0F0BD671C06D0A04206DD625C9A
:1057B000EA543C460133F1E70246F9E70022F7E7F5
:1057C000A0F58053B3F5805F18D24FF480711B4869
:1057D00002F0C6FCA4F580541849013C0023B342F2
:1057E000DEDA621C06D0A04206DD625CEA540134B7
:1057F0000133F4E70246F9E70022F7E710F0FF0172
:10580000A0F5005716D10D2E16D1102268463BF098
:10581000F3FC6946C7F3072002F05EFC019B2B6096
:10582000029B6B60039BAB60009B003B18BF012396
:105830002B73B5E70020B4E70846B2E7602B0020E1
:1058400010B4084C0B46246811461A18A24204D81A
:105850005DF8044B1A4604F0EBBD00205DF8044BE4
:10586000704700BF2434002003461046CA18B2F522
:10587000005F03D20A4699B205F0ECBA00207047E7
:1058800010B45418702C04D85DF8044B89B20CF095
:1058900077B900205DF8044B7047000017F02EBF69
:1058A0000346B3F5805F10B5104612D2B3F5806F92
:1058B00020D251FA83F4342CDAB21BD81B0A3424D8
:1058C00004FB03230A460C4919443BF07EFA0120ED
:1058D00010BDA3F58053B3F5806F0BD251FA83F45A
:1058E0003D2CDAB206D81B0A3D2404FB03230A46EA
:1058F0000249E9E70020EBE7BC580120C857012026
:1059000001481AF0AFB800BFA42004082DE9F843FD
:10591000FFF70AFBFFF7DEFBFFF7F2FFFFF75AFB8B
:105920001449DFF85880144FDFF8549002460646B9
:10593000114828F063FA0024B44201DBBDE8F88383
:105940002046FFF74DFB836FDA69054652B15A686E
:1059500052B123464946384628F050FAAB6F2846E4
:10596000DB6998470134E7E722464146384628F08C
:1059700045FAF3E7DC20040879C301082B21040869
:10598000F92004082DE9F047FFF724FBDFF84490E5
:10599000DFF84480DFF844A0064600240127B44223
:1059A00002DB3846BDE8F0872046FFF719FB836F1E
:1059B0001B6A3BB198472246054628B151464046EE
:1059C00028F01CFA0134EAE74946404628F016FA66
:1059D0002F46F7E76F21040879C301085021040816
:1059E00070B5134D134E034604462A4603CAB2420D
:1059F00020606160154604F10804F6D10E4D0F4E8B
:105A000003F128042A4603CAB242206061601546A9
:105A100004F10804F6D10A4C0A4D5033224603CA59
:105A2000AA4218605960144603F10803F6D170BD0C
:105A30000000024028000240000402402804024006
:105A4000000802402808024070B5114D0246034686
:105A500000F12806186859682C4603C40833B3427D
:105A60002546F7D10B4D02F15006186859682C46AF
:105A700003C40833B3422546F7D1074D783218687E
:105A800059682C4603C4083393422546F7D170BDAC
:105A90000000024000040240000802402DE9F843E3
:105AA0000F4CDFF84080DFF84090054601270026C4
:105AB00034F8021C54F8060C11F05EFC854206D046
:105AC0002B4622464146484628F098F900270136E1
:105AD0000B2E04F10C04EBD13846BDE8F88300BF6F
:105AE0003A0400209021040879C301082DE9F0410F
:105AF000A2B00EF0F7FB01210446072011F0F2FDE1
:105B000004A8384DFFF76CFF00262F46B046BB882F
:105B100057F80C0B02A90136CDE9023811F0E4FB6D
:105B20000B2EF4D100264FF0010837467CB3AB882A
:105B30002868029302A9ADF80C808DF80E7011F060
:105B4000D3FBA988286811F01DFC0197019BB3F5D0
:105B50007A7F3EDB0120FFF7A1FFA9880446286871
:105B600011F012FC0197019BB3F57A7F35DB002021
:105B7000FFF794FF0136002802A955F80C0B8DF8A9
:105B80000C7008BF002411F0AFFB0B2ECED104A87F
:105B9000FFF75AFFCCB101231348ADF80C30802633
:105BA000002302A98DF80E304025029611F09CFBCF
:105BB0000D48029502A911F097FB0B48314611F0F0
:105BC000E3FB0948294611F0DFFB204622B0BDE87F
:105BD000F081019B01330193B8E7019B01330193ED
:105BE000C1E700BF34040020000402402DE9F04F5B
:105BF000A5B00EF077FB01210446072011F072FDDD
:105C000006A8DFF8C081FFF7EBFE002546462F46C9
:105C1000B38856F80C0B04A90135CDE9043711F00F
:105C200063FB0B2DF4D10026664D4FF0010B374678
:105C3000002C51D0AB882868049304A9ADF814B0A7
:105C40008DF8167011F050FBA988286811F09AFBA6
:105C50000397039BB3F57A7F5CDB4346A1464FF085
:105C6000000A18460121019300F0E8F90AF1010A3F
:105C70000028019B08BF4FF00009BAF10B0F03F198
:105C80000C03EED1A988286811F07EFB0397039BD3
:105C9000B3F57A7F42DB43464FF0000A18460021F5
:105CA000019300F0CBF90AF1010A0028019B08BF1B
:105CB0000024BAF10B0F03F10C03EFD1002C55F8BF
:105CC0000C0B8DF8147004A906F1010618BF4C46A0
:105CD00011F00AFB0B2EABD13B4D00262F46B046F0
:105CE000BB8857F80C0B04A90136CDE9043811F034
:105CF000FBFA082EF4D1CDF80C8042F20F72039B10
:105D000093420FDD00260C2784B90024204625B0DD
:105D1000BDE8F08F039B013303939AE7039B0133A4
:105D20000393B4E7039B01330393E8E707FB0650B3
:105D3000012100F083F90136042E0446E4D1012745
:105D40004FF0000842F20F79002CDED0AB8E286BAA
:105D500004A9CDE9043711F0C7FAA98E286B11F018
:105D600011FBCDF80C80039B4B4526DD2846002116
:105D700000F064F90136082E044605F10C05E3D164
:105D80000028C2D001238026ADF8143004A90023D6
:105D90000E488DF816304025049611F0A5FA04A996
:105DA0000A48049511F0A0FA3146084811F0ECFABF
:105DB0000648294611F0E8FAA8E7039B013303934C
:105DC000D1E700BFB804002078050020000402409D
:105DD0002DE9F043A5B00EF085FA01210446072015
:105DE00011F080FC06A82F4FFFF7FAFD00253E4674
:105DF000A846B38856F80C0B04A90135CDE9043840
:105E000011F072FA072DF4D100254FF001082E464B
:105E100054B3B7F804903868019004A9CDF81090F5
:105E2000ADF814808DF8166011F05EFA01984946BD
:105E300011F0A8FA01980396039BB3F57A7F1BDB58
:105E40004946019011F0A0FA01980396039BB3F51F
:105E50007A7F15DB04A901358DF8146011F044FA3E
:105E6000072D07F10C07D3D106A8FFF7EDFD5CB9AC
:105E7000204625B0BDE8F083039B01330393DBE7A5
:105E8000039B01330393E1E7074B1D78002DEFD00F
:105E9000064B1B68DC69002CEAD00020A0472C468A
:105EA000E6E700BF783D040832250020A025002049
:105EB00010B5094C23783BB90848FFF759F8084B4F
:105EC000186010B10123237010BDBDE810400549D2
:105ED000054827F093BF00BF32250020A6260408FE
:105EE000A02500205C3D040879C301082DE9F84392
:105EF0000F4CDFF84080DFF8409005460127002670
:105F000034F8021C54F8060C11F036FA854206D01B
:105F10002B4622464146484627F070FF00270136AF
:105F2000052E04F10C04EBD13846BDE8F88300BF20
:105F3000420500209021040879C301082DE9F041B1
:105F4000A2B00EF0CFF901210446072011F0CAFBE0
:105F500004A8384DFFF744FD00262F46B046BB8805
:105F600057F80C0B02A90136CDE9023811F0BCF943
:105F7000052EF4D100264FF0010837467CB3AB88DC
:105F80002868029302A9ADF80C808DF80E7011F00C
:105F9000ABF9A988286811F0F5F90197019BB3F5D1
:105FA0007A7F3EDB0120FFF7A1FFA988044628681D
:105FB00011F0EAF90197019BB3F57A7F35DB0020F8
:105FC000FFF794FF0136002802A955F80C0B8DF855
:105FD0000C7008BF002411F087F9052ECED104A85B
:105FE000FFF732FDCCB101231348ADF80C30802609
:105FF000002302A98DF80E304025029611F074F9A5
:106000000D48029502A911F06FF90B48314611F0C5
:10601000BBF90948294611F0B7F9204622B0BDE87E
:10602000F081019B01330193B8E7019B0133019398
:10603000C1E700BF3C0500200004024038B50D4612
:1060400004468188006811F097F9854207D0054918
:1060500005482B46A21D27F0D1FE002038BD0120A7
:10606000FCE700BF143E040879C30108014B18780F
:10607000704700BF3325002080B5264D264C274FA2
:10608000274EDFF8A0A0DFF8A09000232B7023702C
:106090003B78337092B04FF001084FF47A702CF0D7
:1060A000D3FB3B7832789A420CD003220DF10600E4
:1060B0008DF808308DF806208DF807800EF0B6FBBD
:1060C0003B7833709AF800302A789A420CD00DF160
:1060D00006008DF808308DF806808DF807800EF0E8
:1060E000A5FB9AF800302B7099F9003094F9002044
:1060F0009A42D2D007220DF106008DF808308DF8B3
:1061000006208DF807800EF091FB99F8003023707F
:10611000C3E700BFA5250020A7250020A425002057
:10612000A6250020D8050020D905002037B5074C4A
:10613000237843B901250649064801930095962224
:106140002CF09EF8257003B030BD00BF3325002031
:10615000583E0408796000082DE9F3411EF0D4F997
:106160002A4E2B4D2B4F3078002849D02A4B2B4CF0
:10617000042200219E4613F8018B14F801CBE04560
:106180001CBF03F801CC0146013AF4D131B12448D7
:10619000CDF800E004232E2105F0DEFB3B78012B37
:1061A0002ED9204B204C1B7822789A420DD0237098
:1061B00001231A461A4800942E2105F0CDFB1B4BF3
:1061C00022781B481A7018F081F92B7823B94FF404
:1061D0007A702CF039FBC6E7DFF85C802CF0CEF942
:1061E000D8F80030984204460AD9124B00930C4864
:1061F000012302222E21643405F048FBC8F8004038
:106200002B78002BE3D00A20E3E700BFAD25002068
:10621000AA250020A9250020DB050020E00500209C
:10622000C4090020DF050020DA050020AB2500208E
:10623000C8F10408A8250020B025002010B5104B97
:106240001878A0B10F491048104CFEF75DF878B9E6
:106250000123237022780E4C002A14BF0122002251
:10626000227003D10B490C4827F0C8FD207810BDDF
:1062700004490A48FEF748F80028EBD10223E8E772
:1062800034250020B4250020883E0408A9250020DC
:10629000AD250020A03E040879C30108943E0408FF
:1062A00073B5124E3478F4B9114D12491248019465
:1062B00003230093962223462BF0E2FF0D22214672
:1062C00028463AF099FF0C2310222E210B48009506
:1062D00005F0DCFA0A4B0B4918702A460A4827F0E9
:1062E0008DFD0123337002B070BD00BF3425002046
:1062F000B4250020C53E040859610008C4090020E7
:10630000AC250020D73E040879C30108034B187858
:10631000034B1B780BB140F004007047352500207B
:1063200030260020044B1878044B1B78022B08BF42
:1063300040F00400704700BF35250020C82500202C
:106340000120704738B50A4C01221046022123462D
:1063500026F012FF0125102320462372E58026F047
:1063600085FB64202CF070FA024B1D7038BD00BF15
:106370003226002030260020F8B5194F01253D7047
:1063800026F0FAFD4FF4E13007F0F0FE154B1C78D3
:1063900029462046FEF7AAFB00212046FEF7D8FB3F
:1063A000114B1E7829463046FEF7A0FB00213046EF
:1063B000FEF7CEFB0A202CF047FA29462046FEF7CE
:1063C000C7FB02212046FEF791FB64202CF03CFA2B
:1063D00000213046FEF78AFB02233B70F8BD00BF68
:1063E000C8250020B01B0408AD1B040870B5194D6A
:1063F0002E786EBB184B01211878FEF777FB174BF0
:1064000001211878FEF772FB2AF07EFB144B18600E
:10641000144B1C7801212046FEF768FB31462046CC
:10642000FEF796FB26F05AFD26F08AFB26F0CCFA02
:1064300026F0C0FE01212046FEF78AFB02212046FD
:10644000FEF754FB0849094827F0D8FC01232B70BC
:1064500070BD00BF35250020AE1B0408AF1B04082B
:10646000C4250020B01B0408203F040879C301089C
:1064700038B50B4D0B490446024605F108003AF0C9
:10648000A4FC41F288312846EC8026F003FB30B9A9
:10649000BDE8384004490548882227F013B838BDC4
:1064A00032260020C92500203D3F0408A23F0408F1
:1064B0002DE9F341404C1E460546234688461746C3
:1064C00004210F22012026F057FE33691E68D5B93A
:1064D000022323720423E37241F288310923204608
:1064E0006572A5722573C4F80D60E38026F0D2FAB8
:1064F00020B932493248812226F0E4FF314932483E
:10650000402227F088FC304D42463946284627F085
:106510008CFCEB689E4204D228492C48AF2226F01E
:10652000D1FF294F384627F088FC00283FD1264864
:1065300027F0A6FCEB699E4235D1234827F0A5FC45
:1065400008B1FFF795FFEA68EB699A4204D01B494E
:106550001F48BB2226F0B6FF002304226372A372F9
:10656000237315482272092341F28831E272C4F87C
:106570000D60E38026F08EFA20B91049104892226F
:1065800026F0A0FF41F28833124800930122002335
:10659000006811462AF0C6FAC30704D407490E481A
:1065A0009C2226F08FFF012002B0BDE8F081402040
:1065B000FFF75EFFB6E700BF322600203D3F04082C
:1065C000A23F0408C92500200C260020AA3F040889
:1065D000D73F0408C425002023400408024B0121B2
:1065E00018682AF04DBB00BFC4250020002007F02A
:1065F0002BBA10B50446802007F026FAA0B2BDE8F9
:10660000104007F031BA000010B5054C237833B9BB
:1066100007F0AEF903480AF0D5FF0123237010BD3F
:1066200036250020E40500202DE9F04F2DED048BE8
:106630008DB01DF069FF0EF08BFD3F4EDFF820811D
:1066400005460F460A202CF0FFF83C4B3A491878D3
:1066500007F066FCB6F904305B421BB2002B08EE73
:10666000103AB8BF5B429BB2632B5FD8B6F90240C9
:10667000644223B2002B09EE103AB8BF5B429BB2D2
:10668000632B53D82E4B1A782E4B002A4AD072898E
:10669000DFED2D6ADFED2D7A07EE102AB8EE477A8E
:1066A000E7EE267AB0EE677ADFED297AB4EEE77A84
:1066B000F1EE10FA58BFF0EE477AC3ED007AD3ED51
:1066C000008A0EF045FD824689460EF041FD8B465C
:1066D00020490978044611BB3178B0291FD1F8EE62
:1066E000C97A0621BAEB0500B8EEC88A8DF8001009
:1066F00069EB0701CDED037A8DED028ACDED048AB9
:10670000CDED058A3AF002FD9FED137A07EE900A6F
:10671000C7EE877A6846CDED067A25F08FFF2546CD
:106720005F468FE70D4A12681A60C8E798F8003094
:10673000013388F8003085E7505B0120AF1B040867
:1067400036270020F0050020B84B513AB6F3DD3E65
:10675000CDCCCC3D3727002000247449EC05002027
:106760003527002010B5084B1C7834B10748FEF7D8
:10677000FFFBBDE81040036A18470549054827F0AC
:106780003DFB204610BD00BF3427002086260408AC
:10679000C840040879C3010837B50F4D2B78CBB931
:1067A0000E4B1C78B4B90E48FEF7E2FBC3692046D5
:1067B00098470C4B187807F0C9F958B10323009398
:1067C00009490A48019423464FF496722BF058FD6C
:1067D00001232B7003B030BD332700203427002065
:1067E0007C260408AF1B0408F5400408296600084D
:1067F00037B50F4B1B78CBB90E4D2C78B4B90E487A
:10680000FEF7B6FBC369204698470C4B187807F093
:106810009DF958B10323009309490A48019423467E
:106820004FF496722BF02CFD01232B7003B030BD7A
:10683000332700203427002086260408AF1B0408D5
:10684000F54004082966000810B5084B1C7834B1DF
:106850000748FEF78DFBBDE81040036A184705495D
:10686000054827F0CBFA204610BD00BF3327002093
:106870007C260408C840040879C301081820704722
:106880002C20704770B571B1124A034600F1240103
:1068900014781C7054785C7094789C7003338B422D
:1068A00002F10302F4D1047841788278034600F1C2
:1068B0002105DE781E701E795E705E799E7003334E
:1068C000AB42F6D180F8214080F8221080F82320D6
:1068D00070BD00BFF441040830B5214B09B100225E
:1068E0001A6093ED007A1F4D1F4C2049F7EE007A95
:1068F000B4EEE77AF1EE10FA44BFDFED1D7A77EEE1
:10690000277A00F12402C3ED007A2B7807EE103AC3
:10691000B8EEC77A033027EE277ABCEEC77A17EEB7
:10692000103A00F8033C237807EE103AB8EEC77A25
:1069300027EE277ABCEEC77A17EE103A00F8023C31
:106940000B7807EE103AB8EEC77A27EE277ABCEE3E
:10695000C77A17EE103A00F8013C8242D5D130BD1B
:1069600060270020760600207506002074060020AF
:10697000CDCC4C3DF0B500F1240439B103460022E2
:106980001A705A709A7003339C42F9D1104940F240
:106990000F2540F203160B784A78DF08DB0003F07E
:1069A000380343EA521302F01F026F4373436A43F2
:1069B000173721331732BF119B11921107704370A3
:1069C00082700330844201F10201E4D1F0BD00BFC6
:1069D000A32700207FB51B4B1A681B798DF80A305E
:1069E000194BCDF8062000211A681B79CDF80B2031
:1069F0008DF80F300DF10602FF260D4612F8013B0F
:106A000003EB4303C41801310529C6546570A57012
:106A1000F4D100250DF10B012B46FF2411F8012BB9
:106A200002EB420286180135052D83547470B37051
:106A3000F4D10470447084708374C374037504B01B
:106A400070BD00BF444104084A41040870B571B1EB
:106A5000124A034600F1240114781C7054785C70CB
:106A600094789C7003338B4202F10302F4D10478D2
:106A700041788278034600F12105DE781E701E7988
:106A80005E705E799E700333AB42F6D180F8214090
:106A900080F8221080F8232070BD00BF7E410408DA
:106AA00070B599B10C2216491546B2FBF5F305FBFA
:106AB000132303EB43030E78C654C4184B7863705A
:106AC0008B78A370013A01F10301EED190F82140D7
:106AD00090F8221090F823200346A0F121059E7F14
:106AE00083F82160DE7F83F8226093F8206083F8CA
:106AF0002360033BAB42F2D104704170827070BDE1
:106B00005A41040837B5044611B1174B00221A60E8
:106B100016480191FFF7B6FE01991548FFF7C0FF2F
:106B20001249134A2046243413780D785B0803EB8E
:106B30005503037053784D785B0803EB550343709E
:106B400093788D785B0803EB550383700330A04284
:106B500001F1030102F10302E6D1034A1368013394
:106B6000136003B030BD00BF0C28002010280020A7
:106B70003428002030B500F1240439B10346002246
:106B80001A705A709A700333A342F9D10D4A1368F0
:106B9000092B4FF000010EDCDD070CD5FF2501703D
:106BA000417085700330A042F9D10133132BC8BF67
:106BB0000023136030BD0170417081700330844246
:106BC000F9D1F2E7682800200D4B0E481988B0F97A
:106BD0000020114489B2B1F57A6F198007D9524269
:106BE00002804FF47A621A8018880AF0E3BCB1F58B
:106BF000FA6FF9D2524202804FF4FA62F3E700BF13
:106C000090100020921000202DE9F043674B684D52
:106C10001B682A68674C6849684E9342684A4FD09F
:106C2000DFF8A48194ED007AD8ED007ADFF89CE1DA
:106C300091ED006ADFF898C1624FDFF89C912B60FC
:106C4000C7EE276AD9F80090C8F80090C3F3074848
:106C5000C4F80090F7EE007A77EEE67A9EED007ABF
:106C600027EE877AA6EE267A92ED006A81ED007A09
:106C70009CED007A27EE877AA6EE267A82ED007ADE
:106C800097ED007A67EE877A96ED007AE7EE267A3E
:106C9000C6ED007A07EE908AF8EEE77ACEED007A3C
:106CA000C3F3072E07EE90EAF8EEE77ACCED007A10
:106CB0005FFA83FC07EE90CAF8EEE77AC7ED007A38
:106CC000D4ED007AF5EEC07AF1EE10FA00F1240569
:106CD0003FDD3D4B91ED006A93ED007A3B4BC7EEF3
:106CE000876AF7EE007A77EEE67A93ED007A384B12
:106CF00027EE877AA6EE267A92ED006ABDEEC77A75
:106D000017EE101A93ED007A2E4B27EE877AA6EE37
:106D1000267ABDEEC77A17EE102A93ED007A67EE59
:106D2000877A96ED007AE7EE267AFDEEE77A17EE9F
:106D3000903A01704270837003308542F9D1D4EDEE
:106D4000007A9FED247A77EEC77AC4ED007ABDE829
:106D5000F08300272760C3F3074406EE904AF8EE5D
:106D6000E66AC1ED006AC3F30721DBB207EE101A31
:106D700007EE903AB8EEC77AF8EEE77A82ED007A3D
:106D8000FCEEE66ABCEEC77AC6ED007AFCEEE77A66
:106D900016EE901A17EE102A17EE903A0170427014
:106DA00083700330A842F9D1D1E700BF94270020B7
:106DB00070060020FC05002004060020F8050020D5
:106DC0000006002058280020F4050020602800203C
:106DD0005C280020CDCC4C3D5C06002037B5044635
:106DE00028F091FA07EE900ADFED1D6A9FED1D6A0B
:106DF000B8EEE77ADFED1C7AE7EE267A204600252A
:106E00002434FCEEE76ACDED016ADFED186A9DF8E7
:106E10000420E7EE066ABCEEE67A17EE103A9FED24
:106E2000147AF4EEC76AF1EE10FAC8BF4FF0FF33E0
:106E3000DBB2F4EEC77AF1EE10FA0EDCF5EEC07AB2
:106E4000F1EE10FA4CBF00211146017043708570BD
:106E50000330A042EDD103B030BDFF21F5E700BF04
:106E6000C9C8C8BEC9C8C83E0000C842000000006A
:106E700000007F43F8B5224E224F336801330546A8
:106E800009D12149214818F089F921493060214868
:106E900018F084F938602BF071FB0446308818F044
:106EA00099FD241AA4B21E2C388828BF1E2418F07D
:106EB00011FD40B2184B1949032808BF012204EB09
:106EC0004406A4EB840408BF1A7064340A681F786F
:106ED0002846F6B2E4B2243500236FB1092A0BDC50
:106EE00003704370837003308542F6D10132132A58
:106EF000D8BF13460B60F8BD06704470F2E700BFC0
:106F0000680600206C060020F9290408032A0408FA
:106F1000D93C0408A9260408382700206C28002042
:106F200073B520490446204818F038F918F052FD8E
:106F30001E4905461C4818F031F918F023FDDFED15
:106F40001C7A9FED1C7A30EE670ADFED1B7AE0EECB
:106F5000077A9FED1A7AF4EEC77AF1EE10FA19DC8F
:106F6000F5EEC07AF1EE10FA16D4FCEEE77ACDED2C
:106F7000017A9DF80420234604F124006421D443BF
:106F800000265DB11C705A709E7003339842F8D190
:106F900002B070BDFF22EEE70022ECE719705970D5
:106FA0009970F2E74E2704086F2704084927040860
:106FB0000000AA423333A3C00000000000007F435A
:106FC000F7B531490446314818F0E8F818F0DAFC12
:106FD0002F4A30499FED307ADFED305A9FED305A1D
:106FE0002046154624340E46B0EE476A0027D2EDFF
:106FF000007AD1ED006A76EEE76A70EE677AC5EE48
:10700000A64AF0EE476AE4EEA76AF4EEC76AF1EE2C
:1070100010FA30DCF5EEC06AF1EE10FA2DD4FCEE79
:10702000E67ACDED017A9DF8043003704770D5ED16
:10703000007AD6ED006A76EEE76A70EE677AC6EE01
:10704000264AF0EE456AE4EEA76AF4EEC66AF1EE6F
:1070500010FA14DCF5EEC06AF1EE10FA11D4FCEE71
:10706000E67ACDED017A9DF80430837003308442D6
:10707000BDD103B0F0BDFF23D7E70023D5E7FF2341
:10708000F3E70023F1E700BF08270408A926040856
:10709000580600206006002000007F4300007FC3E8
:1070A00000000000F8B5424E424D434F04463068A0
:1070B00000280FDA4149424818F070F84149306021
:1070C0003F4818F06BF8404928603D4818F066F8D2
:1070D0003860F8BD80B218F055FCFDEEC07A288803
:1070E00017EE906A18F04EFCFDEEC07A388817EE65
:1070F000905A18F047FC354B9E423246B8BF1A46AC
:10710000B2F5007FFDEEC07AA8BF4FF400729D4239
:1071100017EE900A2946B8BF1946B1F5007FA8BFFF
:107120004FF400718342B8BF0346B3F5007FA8BF98
:107130004FF40073002EACBF01264FF0FF36002D38
:1071400002FB06F2ACBF01254FF0FF35002801FB22
:1071500005F1ACBF01204FF0FF30092A03FB00F31B
:10716000CCBF521000220929CCBF49100021092BA5
:107170002046CCBF5B1000232434B3F5807F14BFBE
:107180001D46FF25B1F5807F057014BF0D46FF2514
:10719000B2F5807F457014BF1546FF25857003301A
:1071A000A042EAD10A4A13780133137091E700BF75
:1071B00064060020982700209C270020BF5D04085B
:1071C000D1270408FF2F04080339040800FEFFFF3D
:1071D00064270020F8B5434F434E3B78434D2DEDD7
:1071E000028B04465BB94249424817F0D7FF424937
:1071F0003060404817F0D2FF012328603B70308890
:1072000018F0C0FB2888F0EE408A18F0BBFBB5EE02
:10721000400AF1EE10FAB0EE408A5FD088EE880A9C
:107220003AF04EFBDFED357AB5EEC08AF1EE10FA9A
:1072300070EE277A03D59FED327A77EE877A28EEC3
:10724000088AF2EE086AA8EEA88A2046002267EEB5
:10725000A67A9FED2C7AC7EE875AB1EEC87ADFED99
:107260002A7AB4EEE77AF1EE10FAD4BFBDEEC77A0F
:107270009FED267AB8EEC77AF0EE047A87EE276A99
:10728000B1EE085AB1EE466A07EE902AF8EEE77AB8
:10729000F0EE474A75EEE77A0132F0EEE77AF4EE67
:1072A000C57AF1EE10FAC8BF76EEE77A0330E6EE63
:1072B000274AFDEEE47A17EE903AFF2BDABF23EA75
:1072C000E373DBB2FF230C2A00F8033C00F8023C16
:1072D00000F8013CD8D1BDEC028BF8BDDFED0C7A93
:1072E000ADE700BFA22700200028002008280020CA
:1072F0006B3604083E2D040861360408DB0FC93FD5
:10730000DB0F4940DB0FC94000007F43FF00000056
:1073100000000000002110B50B481DF0B9FB0B4B1D
:107320000B481B78102163B110F02CF8094C23781E
:1073300033B1012323722BF021F900236060237005
:1073400010BD10F021F8F1E719770008A027002000
:1073500000040240E827002008B50B4611461A1821
:10736000282A06D81A46044B184439F02EFD01206D
:1073700008BD0020FCE700BFC027002008B5034679
:107380001046CA18282A06D80A460449194439F072
:107390001CFD012008BD0020FCE700BFC027002025
:1073A00008B50B4611461A18182A06D81A46044B77
:1073B000184439F00AFD012008BD0020FCE700BF99
:1073C000A327002008B503461046CA18182A08D873
:1073D0000A460549194439F0F8FC003818BF012065
:1073E00008BD0020FCE700BFA327002041B100F149
:1073F0002402002303704370837003309042F9D15C
:107400007047000070B5234B09B100221A6093ED5C
:10741000007A214C214DF7EE007AB4EEE77AF1EED6
:1074200010FA44BFDFED1E7A77EE277AC3ED007ABB
:10743000237803EB43016A186E5C5578917800F16C
:10744000240206704570817003309042F9D1154DC9
:107450001548297802780131C9B20132D2B2042923
:107460002970027009D90021013329700321B3FB6F
:10747000F1F101EB41015B1A23700C2A09D90B4A87
:10748000002303701378B3FA83F35B091370084A7F
:10749000137070BD6827002065280020D8410408BB
:1074A000CDCC4C3D64280020A12700206628002078
:1074B000A0270020F0B52DED028B044683B049B122
:1074C000034600F1240100221A705A709A700333A7
:1074D0008B42F9D1694F6A4E3B686A4D002B12DA34
:1074E00069496A4817F05AFE69493060674817F0E1
:1074F00055FE68492860654817F050FE386003B0B3
:10750000BDEC028BF0BD308818F03CFA2888B0EE54
:10751000408A18F037FAFBEE047AB4EEE78AF1EE0F
:1075200010FAB3EE047A00F18D80B4EEC78AF1EE62
:1075300010FA00F38A80F1EE486AB4EEE70AF1EE41
:1075400010FA00F18580B4EEC70AF1EE10FA00F3EC
:107550008280B1EE400AF5EEC06AFFEE007AF1EEED
:1075600010FAB7EE007AB5EEC00AB4BFB0EE676AA3
:10757000B0EE476AF1EE10FAB8BFB0EE677A26EEC9
:10758000866A60EE077A66EE266A27EE800AF2EED9
:10759000047A36EEA76A9FED407AB4EEC76AF1EE40
:1075A00010FA5BDCB5EEC06AF1EE10FA58D4BCEE0E
:1075B000C66A8DED016A9DF8043084F8213037EEFB
:1075C000C06A2370B4EEC76AF1EE10FAE37049DCCA
:1075D000B5EEC06AF1EE10FA46D4BCEEC66A8DED87
:1075E000016A9DF80430237277EEE66AE372F4EEE6
:1075F000C76AF1EE10FAA37338DCF5EEC06AF1EE5B
:1076000010FA35D4FCEEE66ACDED016A9DF804303F
:10761000E37370EE277AA374F4EEC77AF1EE10FAF2
:10762000637527DCF5EEC07AF1EE10FA24D4FCEE97
:10763000E77ACDED017A9DF80430A376637784F87C
:1076400020305CE7F0EE476A77E7F0EE676A74E7B0
:10765000B3EE040A7FE7BBEE040A7CE7FF23ACE746
:107660000023AAE7FF23BEE70023BCE7FF23CFE701
:107670000023CDE7FF23E0E70023DEE778060020C4
:10768000FC270020042800206B3604083E2D040847
:10769000613604081D33040800007F437FB5174E90
:1076A00035784DBB08F032FB154B1648ADF80E503F
:1076B00012221A600124102302A902938DF80C40B3
:1076C0000FF012FE104818F0CDF9104818F0CAF962
:1076D0000F4B34702246322100930E482B462BF07C
:1076E000FFFF06462AF04AFF642302460093214624
:1076F0002B4630462CF066F804B070BD37250020CC
:10770000F427002000040240C8410408E4410408B2
:10771000157300085041040810B51B4B1B4A1B6829
:107720001268934205D91A480C21BDE8104008F0B0
:10773000A3BB184A184C11681360184A184852F82D
:107740002320C91A18BF01219047237A73B12AF068
:1077500015FF616840F2DB53401A984209D90021B5
:10776000217261600E48242239F046FD0C480C213C
:10777000DBE74FF49673B0FBF3F103FB11016429CF
:1077800094BFFF210021EDE708060020F427002028
:107790003927002090270020E82700200C06002031
:1077A0006C2700202DE9F04F2DED028B814695B01E
:1077B00009B3A44A034600F1240100241470547054
:1077C0009470033303F8034C03F8024C03F8014CA4
:1077D000994202F10302F1D19B4B00221A600DF095
:1077E000B7FC00234FF47A723AF08EF8974BC3E956
:1077F0000001974B1C60DFF858B2DFF85CA2DBF8A1
:1078000000300AEB8302013351680A910AEB8301CD
:107810001AF823804D788E7845EA0803334300F048
:10782000A881D7790DF094FC4FF47A7200233AF0D6
:107830006BF8CDE90001DFED876ACDF81CB007F0E9
:107840000F0440F20F2E7F09804BD3E9002328213B
:10785000CDE90223C1FB8823CDE90423EB0003F02B
:107860003803E90843EA561340F20315DDE900BC8A
:107870006B4306F01F02DDE904560EFB01F10EFB1F
:1078800002F2664501F1170103F1210302F117022B
:1078900008BF5D45C1F38711C3F38713C2F3871295
:1078A00072D30BAD674E8DF825108DF826308DF80C
:1078B000272028464FF0000C96F800E080F800E002
:1078C0000CF1010C96F801E080F801E0BCF10C0F1E
:1078D00096F802E080F802E006F1030600F10300EA
:1078E000EAD19DF82B0064F3030067F347108DF88D
:1078F0002B00C6B2C00640F14181009B029A981A43
:10790000019B039A63EB020139F036FC82464FF487
:107910007A7000FB08F81920B8FBF0F08B4639F0BC
:10792000F9F802460B465046594639F09CFB39F0AF
:1079300055FE16F00F0206EE900AF7EE007A00F000
:107940008D8037EEE67A3F4D0DF1250104EB4404BE
:1079500000220BA811F8013B07EE903A635DF8EEA8
:10796000E77A06EE103A67EEA67AB8EEC66A0132FA
:10797000E7EE067A032AFCEEE77A17EE903A2354F4
:1079800004F10104E6D18EE09DF82B5064F3030569
:1079900067F34715EEB215F00F054AD1294C217057
:1079A00001350C2D6370A27004F10304F7D116F0B9
:1079B000E00F19D007EE908AF8EEE77AB3EE097A75
:1079C00067EEA67A4FF47A7387EE876A5F431E4BA1
:1079D00007EE907AF8EEE77A86EE277AD3ED007A12
:1079E00077EE277AC3ED007ADDE90412174BC3E97D
:1079F0000012079B079A19684B1C13600AEB83035C
:107A000002315A680A92DF791AF821800AEB810262
:107A100007F00F04557896787F09B8F1000F7FF4CE
:107A200013AF002D7FF410AF002E00F0A280A84607
:107A30000AE7044D04EB44042846254401556B70C5
:107A4000AA70B4E77428002098280020A0280020FD
:107A50007028002000007A44BC27002037EEE67A28
:107A6000524B0DF1250403EB020CA81800211CF861
:107A7000013B06EE103A14F8013B07EE903AF8EE9F
:107A8000E77AB8EEC66A67EEA67A0131E7EE067AC3
:107A90000329FCEEE77A17EE903A00F8013BE6D1B5
:107AA0000332242ADCD1424B16F0E00F93ED008A1A
:107AB00015D0009B029A981A019B039A63EB02016E
:107AC00039F024FB4FF47A735F4307EE907A07EEA8
:107AD000100AF8EEE77A87EE277A38EE078AF2EE98
:107AE000087A28EE278A0C20FDEEC87AB7EE007AD5
:107AF00017EE905AF8EEE77A002638EE678A95FB83
:107B0000F0F337EE487A00FB13553446013D01345B
:107B10002A1992FBF0F300FB132303EB4303B4FB9E
:107B2000F0F200FB12424B440BA902EB42070F4458
:107B300003F1FF3CA2EB82010233CA19925D06EE0B
:107B4000902A17F8012B07EE902AF8EEE77AF8EE64
:107B5000E66A67EE277AE6EE887AFCEEE77A17EEB9
:107B6000902A0CF8012F6345E7D10C2C06F103068F
:107B7000CDD115B0BDEC028BBDE8F08F16F00F0033
:107B800008D101300C2829706B70AA7005F103052B
:107B9000F7D188E704EB440414A8044404F8241C37
:107BA00004F8233C04F8222C7DE700BF7428002051
:107BB000982800201FF080BA73B5134E34780CBBA0
:107BC0001FF050FA0323114900934FF49672234695
:107BD0000F4801942AF054FB0E4B01930E4B009377
:107BE00001222346C8210D482BF0A8FD05462AF0A6
:107BF000C5FC234602460094012128462BF0E2FDF5
:107C00000123337002B070BD3825002018420408EB
:107C100085710208A8280020B57B00081B420408D3
:107C200008B5044B1B6802215B689847024B18603B
:107C300008BD00BF880600205C2B002008B5044B5F
:107C40001B6801215B689847024B186008BD00BFA4
:107C5000880600205C2B002008B5044B1B6803211C
:107C60005B689847024B186008BD00BF880600207B
:107C70005C2B002008B5044B1B6804215B68984707
:107C8000024B186008BD00BF880600205C2B002056
:107C900019B9044B28221A8070470129FCD1014BE5
:107CA0000822F8E7DC06002010B5044C22781AB947
:107CB0000349044826F0A2F8207810BD3925002099
:107CC0004842040879C3010808462AF0BDBD0000F7
:107CD00070B586B0FCF780FF0B2102200FF0FCFD91
:107CE00001244FF4006304A80493ADF814308DF818
:107CF00016400FF0A1FA3F4B3F4E18782146FCF793
:107D0000F5FE3E4B1D7821462846FCF7EFFE3C4B26
:107D100000211878FCF7EAFE00212846FCF718FF3E
:107D20000A202AF091FD21462846FCF711FF0A207F
:107D30002AF08AFD334934482CF052F932482CF0AD
:107D4000B1FB054638B1002330493148337026F085
:107D500055F806B070BD2C482CF0AEF90022002377
:107D6000CDE902232848DDE902232DF0F6FA29495E
:107D700025482DF0EAFA284923482DF0E8FA27494A
:107D800021482DF0E6FA26491F482DF0E4FA1E4856
:107D90002CF029FC1C482CF097FE22491A482CF0A4
:107DA00077FE194802212CF0E1FC174809212CF03C
:107DB000E5FC154821462CF033FC42F210711248C4
:107DC0002CF0A0FA10482DF047FA174817F04AFE99
:107DD000204629F0D0FC154B15491860154B01932E
:107DE0000323009314482B464FF4E1722AF048FA1B
:107DF0003470AEE7AD1B040839250020B21B04081F
:107E0000B11B0408AC060020302900206F42040892
:107E100079C30108217C00083D7C0008597C0008DA
:107E2000757C000871AC0408F84204082C29002075
:107E300092420408602C00206D7F00082DE9F84371
:107E40001E46164BDDF820901888154D14460F4637
:107E5000FCF7D0FF134B93F8008000214046FCF75D
:107E600077FE22463946284638F0AFFF4A4631466B
:107E7000281938F0AAFF0C4A294604EB0900FCF740
:107E800047FF01214046FCF763FEFCF7C3FF074AAA
:107E9000936801339360BDE8F88300BFDC060020DF
:107EA000982A0020AD1B0408D4290020E0060020F9
:107EB0002DE9F8431D46194B089E1888184F1446A3
:107EC0008846FCF797FF174B93F80090002148462F
:107ED000FCF73EFE41462246DFF85080384638F037
:107EE00074FF32460021381939F086F94246394686
:107EF000A019FCF70DFF324608EB0401284638F0C4
:107F000064FF01214846FCF723FEFCF783FF064A85
:107F1000936801339360BDE8F88300BFDC0600205E
:107F2000982A0020AD1B0408C0060020D429002098
:107F300010B5094B094CD870094B53F83030236009
:107F400008481B689847236806485B6800219847E3
:107F5000054B1860012010BD7C060020880600201B
:107F60008C060020302900205C2B002080B50022E8
:107F700020210A2029F0ECFA4C4B4D4C18600023CC
:107F80004C4EE3701CF0C0FA4B4F354630684FF052
:107F9000FF3129F077FD94F80290B9F1000F5CD120
:107FA0002AF0ECFA6379804663B194F804A0BAF140
:107FB000000F31D000F57A70A0600220FFF7B8FF03
:107FC00084F804900023DFF8089128681A461946BF
:107FD00029F0F6FAD9F80020012100202BF06AF8E8
:107FE000804600284ED0DFF8E490DFF8E88028686B
:107FF0004FF0FF3129F046FD48462DF055F900239A
:1080000028681A46194629F0DBFA98F80000FCF7B0
:10801000ADFD0028EBD1B9E7A3689842D2D9274B30
:108020001B689B689847E37848B107EBC303244972
:108030005A6884F805A0234825F0E0FEC2E7013322
:10804000D8B2042828BF012008F57A73A360431E24
:10805000022BB7D8FFF76CFFB4E740F20113A380FF
:10806000E3784B45AED009F1FF33022BAAD848463E
:10807000FFF75EFF0028A5D0E378134907EBC303A1
:108080005A68D8E728684FF0FF3129F0FBFC0B4B0A
:108090000E481B6841465B6898474346C9F8000094
:1080A00042462868414629F08BFA6FE7D029002024
:1080B0007C0600202C2900208C0600208806002049
:1080C0009642040879C30108B84204083029002008
:1080D0005C2B0020B11B0408F8B50D4B1C7805463D
:1080E0000E4694B10B4F4FF0FF31386829F0CAFCAF
:1080F000094B1B683146DB68284698470023044635
:108100001A463868194629F05BFA2046F8BD00BFC8
:10811000392500202C29002088060020F8B50D4BB9
:108120001C7805460E4694B10B4F4FF0FF3138686E
:1081300029F0A8FC094B1B6831461B692846984763
:10814000002304461A463868194629F039FA2046B1
:10815000F8BD00BF392500202C290020880600200A
:10816000F8B50D4B1C7805460E4694B10B4F4FF0F9
:10817000FF31386829F086FC094B1B6831465B6982
:1081800028469847002304461A463868194629F0BD
:1081900017FA2046F8BD00BF392500202C29002001
:1081A0008806002038B505460948007878B1094CA2
:1081B000A01C6270257038F008FE074800231A469C
:1081C0000068214629F0FCF9431E5842584138BD49
:1081D0003925002090290020D029002008B5054B22
:1081E00001460022186829F0A5FB431E5842584159
:1081F00008BD00BFD029002007B50A4B0021186830
:10820000019101AA2BF038F9019B3BB1064B4FF0CD
:1082100080521A60BFF34F8FBFF36F8F03B05DF8CA
:1082200004FB00BF602C002004ED00E0704700005C
:10823000014B188880B270477C060020014B1880E3
:10824000704700BF7C060020014B1878704700BFC4
:10825000DA2C0020014B1879704700BF742D0020E4
:10826000014B1878704700BFDB2C002013B5044683
:1082700001912AF083F9019A03460348214602B08E
:10828000BDE8104027F0D5BFD090001013B50446CC
:1082900001912AF073F9019A03460348214602B07E
:1082A000BDE8104027F0C5BFD090001070B50A4B54
:1082B0000A4C1D68002201461046AB6854F8046B56
:1082C0009E42BCBF0A54431C02F10102B8BFD8B29F
:1082D000082AF2D170BD00BFAC080020DC2E0020BF
:1082E0000A460146014827F08FBF00BFD09000101A
:1082F0000A460146014827F087BF00BFD090001012
:1083000003460020185401300828FBD170470000B4
:1083100037B504460D462AF031F9214602466B4630
:10832000054827F05EFF044618B12946684627F045
:10833000ABFF204603B030BDD090001037B50446E7
:108340000D462AF01BF9214602466B46054827F0E8
:1083500048FF044618B12946684627F095FF204695
:1083600003B030BDD090001010B507289FBF064B5A
:108370001B6803EB001058300C4697BF0FC8002055
:1083800084E80F00012010BDAC08002000000000B0
:1083900038B505462AF0F2F89FED0D0B0E4A01465E
:1083A00002230E4827F092FC0D4B00241C700D4B4D
:1083B00020461C70FFF742FF42F2107128462BF056
:1083C000A1FF28462CF048FF074B1C7038BD00BFAA
:1083D0000000000030C12D4249840008D0900010F8
:1083E000D92C0020D82C0020DA2C0020000000001E
:1083F00010B504462AF0C2F80F4A01239FED0C0B7A
:1084000001460E4827F062FC4CF2503120462BF01A
:1084100079FF20462CF020FF094B0A4A1A600122FE
:1084200083F8252000221A7110BD00BFAFF3008031
:108430000000000030C12D429D840008D090001043
:10844000742D00209A99193E70B5124B8CB01B68A0
:1084500083620546002306468DF800300FCD01AC3F
:108460000FC40FCD0FC495E8070084E807006846E5
:1084700024F0E4F896F8203096F82120013303F038
:108480000703934201BF044A02EB8303726A1A6036
:108490000CB070BDB0080020942C002030B50C4BFF
:1084A00093F825208DB08AB11B68836204460023AF
:1084B0008DF800300FCC01AD0FC50FCC0FC594E87F
:1084C000070085E80700684624F0B8F80DB030BD15
:1084D000742D0020000000002DE9F04F984943F270
:1084E0008842B3B08B5801338B5007462CF077F994
:1084F0000DF133010246064638462CF08EF99DF800
:108500004830222B40F005818E4B109C93F8009050
:10851000E4B2B9F1000F53D0DFF8448298F800308C
:10852000A34240F0F380884D38462BF076FF2B783D
:1085300098F8012023F07F0343F041032B706B7800
:1085400003F0030363F023036B7008F10201F023CF
:1085500005F116006B7538F038FC7C4B00221B6867
:10856000AA73EA732A746A74AA7498F800206FF0E8
:1085700043014FF0FF3C297129756FF0300003EB88
:10858000C20185F80DC0E870E87453F832204B68DA
:10859000C5F809303846C5F805202CF0AEF9384644
:1085A0002CF092FA98F801202946163238462CF021
:1085B000F4F8384601212CF02BF838462BF0E5FF73
:1085C0000022002308A93846CDE908232CF04CFAF4
:1085D000072C00F2978029F0D1FF0246DDE908015F
:1085E000A31CCDE9040132A901EB83030AAF53F8C0
:1085F0007FBC53480B462344214613F87F3C03F0CD
:108600007F0306933B4627F086FB384627F027FE7C
:108610004FF0000A804655463846E9B2884535D0C5
:1086200032AAAB1C02EB830353F87F2C62B132AB4E
:108630002B44079113F87F3C03F07F030093002342
:1086400027F084FE07990AA832AA05F1140302EB69
:10865000430333F87F2C93B2C3B192B2002327F0C7
:10866000CDFE3B4B1B785A1C02F0070242450AA87C
:108670000CD132AA143302EB430313F87F2C13F806
:108680007E3C42EA0323334A22F818300135082D94
:10869000C3D1DDE904233946CDE9002328482E4D16
:1086A0005A46002327F0EEFC069B02933846DDE98C
:1086B0000423CDE900BA27F004FE384627F012FE65
:1086C00051EC100B38F08AFF05EB8405204B286035
:1086D0004E3E002E1C7012DD9DF88130F02B0ED125
:1086E0001A4B10981B681199A3F108023833F2E96C
:1086F0000245A94208BFA0420ED09342F7D1174BC2
:1087000001221A70484633B0BDE8F08F4FF00009DF
:1087100056E74FF00009F5E79DF88230012BEED1C6
:10872000DDF88B3001EE103ADDF8873000EE903A3C
:10873000DDF883300AA800EE103A27F0B8FDDEE736
:10874000D0900010D82C0020DC2C0020A80800209D
:10875000D92C0020642C0020742C0020DA2C00205E
:10876000B42C00202DE9F04F43F28842514CA3581D
:108770000133B1B0A35007462CF031F80DF12B01B5
:108780000246054638462CF048F80023002206A988
:108790003846CDE906230E9E2CF066F99DF8403050
:1087A000302B51D19DF84130DDF8428003F07F033A
:1087B0000493DDE906AB29F0E1FEF1B2024608AB15
:1087C000204627F0A8FA00273E460DF147049DF801
:1087D0004620F3B29A423AD810ABE41A0023CDE90E
:1087E0000233424608A9CDE900AB324827F0A4FA8B
:1087F000153D049B0293CDE9008752465B4608A8CD
:108800002D1B27F05EFD002D1BDD30AB234413F83C
:10881000802CF02A15D113F87F3C012B11D10DF1DA
:108820002B031C4408A8D4F81F3001EE103AD4F8EA
:108830001B3000EE903AD4F8173000EE103A27F0D3
:1088400036FD1D4B01221A7131B0BDE8F08FD4F80E
:10885000022021784AB16378059103F07F030093E9
:1088600008A8002327F072FD059994F90130002B28
:108870001DDAB4F8069000231FFA89F252EA0300C9
:1088800012D008A8059127F0B9FD08A827F0E7FC49
:108890000A4B05991B78834206D1094B1B788B4202
:1088A00004BF084BA3F80090083401368FE7063464
:1088B000FBE700BFD0900010742D0020F8C5001019
:1088C000F9C500101CC600102DE9F04F2DED088BE6
:1088D0000022B7B00023CDE9022304462BF07FFF2E
:1088E000054608B9002023E0DFF854A31522002133
:1088F0000DF1430038F080FC2A460DF1430120467B
:108900002BF08BFFDAF8006013991298D6E9042354
:10891000994208BF904257460FD020462BF0DCFF0B
:1089200020462CF0D1F820462BF016FE4FF0FF30F9
:1089300037B0BDEC088BBDE8F08FDFF81483149AD4
:10894000159BC8F811109DF85810C8F80520022989
:10895000C8F80930C8F80D0000F0F9800429E5D105
:10896000AD4B9DF859201B789A42BBD1AB4BDDF83B
:108970005A009DF85E2018601A71A94B9DF863207B
:10898000DFF8D0B21A710746DDF85F0018609DF875
:1089900068308BF80430A34B04461D681998A24B2D
:1089A000CBF8000006461868281A38F031F941EC77
:1089B000180BE01B38F02CF941EC190B301B38F088
:1089C00027F99A4B9A4E41EC1A0B1868401B38F065
:1089D0001FF953EC1A2B41EC1B0B51EC180B38F020
:1089E00040FB53EC1B2B8046894651EC190B38F0A9
:1089F00038FB02460B464046494638F0CDFA53EC68
:108A00001A2B8046894651EC180B38F002FB53ECC8
:108A1000192B38F0FEFA53EC1B2B38F0FAFA024609
:108A20000B464046494638F01EFB824D76A3D3E9FB
:108A3000002338F018FB76A3D3E9002338F011FBAC
:108A40002C7838F0CBFD06EB84074FF084083860B3
:108A5000DDF871203A62784F08FB047204EB44148D
:108A6000D2F88030013303F01F03C2F8803007EBE7
:108A7000840001AA202128F007F828786B4C00EB2D
:108A800040106A46202107EB800027F0E5FF2B7895
:108A9000DDED007A08FB037803EB4312D8F8801071
:108AA0000A4407EB820706EB8306644A96ED007AD8
:108AB00001211170DAF8002087ED007A77EEC77A8D
:108AC00092F8D810F0EEE77A19B902EB0311896D2C
:108AD00001B3DDED016AB1EE006A66EE866AF4EE7E
:108AE000E76AF1EE10FA15DD02EB03110A46C86DD4
:108AF000526E096E059003268DF8203004A84FF0C1
:108B00007A538DF81060069107928DED097A0A93D9
:108B100023F094FD4A4B1B6893F8D9309BB12B7816
:108B20008BB9DBE9000100F060431B1AD4E9002097
:108B300061EB0101434DD31840EB0101C5E9003160
:108B4000414B01221A70414B01221A70CAE6324988
:108B50009DF85900097888427FF4C4AE153D032D75
:108B60000FDD9DF85A10F0290BD106F1180C0025E5
:108B7000FCE802018B4208BF824231D00135082D4A
:108B8000F6D102AD032388F8153029469DF85930F7
:108B900088F8163020462BF067FF3B68D3E90002C7
:108BA0004308510843EAC273029AD31A039A62EB4C
:108BB0000102CDE9023295E803001A4B83E8030075
:108BC00020462BF09AFE1722204621492BF0E5FD86
:108BD000204601212BF01CFD20462BF0D6FCA5E6FB
:108BE0009DF85B30012BCCD129F0C8FC06EB0516B3
:108BF0003B68B06503EB0513179ADA65189A1A6695
:108C0000199A5A66BDE700BF0000000030C12D422E
:108C10000000004A78DEB141482E0020782E002066
:108C2000402E0020382E0020802E0020602E0020B4
:108C30009C2E0020492E0020F0010010DB2C00208B
:108C4000AC080020682E0020582F0020982E00200D
:108C50009E260020582E002070B50446042934D8E2
:108C6000DFE801F02A03222A2A00FFF735FC1A4E1A
:108C70001A4D40B1002333701948FFF7AFFA0023B3
:108C800030702B6010E020462BF026FE20462BF0A3
:108C90001BFF20462BF060FC2B680133272B2B6039
:108CA000E8DC3378002BE7D029F068FC0020FFF7E0
:108CB000C5FA4FF0FF3070BD2BF00EFE20462BF0B2
:108CC00003FF20462BF048FCEEE70649064840F239
:108CD000071224F0F7FBE7E7D82C0020D42C002063
:108CE000B42C002048430408D36204080129F8B5D5
:108CF00005461AD002D90239022919D829F03EFCBA
:108D00002E4E01462E4827F005FA701DFFF766FA31
:108D1000A8B928462BF0E0FD28462BF0D5FE2846C2
:108D20002BF01AFC4FF4FA70F8BDFFF71BFDE5E7D6
:108D3000244925484FF4187224F0C4FBDEE7234C85
:108D400028462BF06AFB2378B27923F07F0343F0A7
:108D500041032370637803F0030363F0230363701C
:108D6000F11DF02304F11600637538F02EF87379C5
:108D7000C4F805306FF030000022154BE0706FF042
:108D80004301E0744FF0FF3728462171A273E2736C
:108D900022746274A2742175C4F8093067732BF0D1
:108DA000ACFD28462BF090FEB279284616322146BB
:108DB0002BF0F3FC28462BF0E8FBB3E7742D0020E2
:108DC00050C50010B2430408D36204089C2D002053
:108DD0000000CFBC38B52F4B1C68D4F8DC30002B1A
:108DE000054605DA24F0B8FD00F00100C4F8DC0007
:108DF000D4E90423D4F8DC10521843EBE173C4E93E
:108E00000423254B00219522184638F0F5F9234B11
:108E10000024C3E90044224BC3E90044214BC3E9C9
:108E20000044214BC3E90044204BC3E90044204BDC
:108E30004122C3E9004402701E4B6FF023024270CE
:108E40006FF03002C2701C706FF043021A4B027157
:108E500020461C70FFF7F2F9184B19481C70194B8B
:108E6000202221461C7038F0C7F9202221461648DE
:108E700038F0C2F920222146144838F0BDF94FF4E9
:108E80007A7128462BF03EFA28462CF0E5F9104B73
:108E90001C7038BDAC0800209E260020802E0020CB
:108EA000782E0020402E0020382E0020602E00203A
:108EB000582E0020482E0020492E0020982E0020F9
:108EC0009C2E0020582F0020BC2E0020DC2E0020DD
:108ED000DB2C00202DE9F04FBF4B1A6887B0054608
:108EE0000C4698461AB929F049FBC8F80000042C32
:108EF00000F26981DFE814F0330005000B006E0119
:108F00006E012846FFF7E0FC07B0BDE8F08F04AC27
:108F1000214628462BF08CFCB04B1B68D3E900039C
:108F2000420842EAC3725908049B9B18059A41EB18
:108F30000202CDE90432AA4B5B7D012B07D0032B43
:108F40000BD0A84B187880F001004042DCE7A64B1C
:108F500094E8030083E80300F3E7A44BF8E7A44F89
:108F6000A44EFFF765F93A78A34B04463078002AFF
:108F700040F0AA809B4A1278002A40F0A580DFF8D2
:108F80005CE29FED9E0ADEF800E000F1100CDEF8D6
:108F900008E053F82C100122714502FA00F212B2D7
:108FA00024B2B7BF01319443144343F82C1014F09A
:108FB0001BFF32789249A4B28B5C01338B5420465C
:108FC000FFF73CF929F0DAFAD8F8003003F57A73A4
:108FD000984200F28B80DFF848B2814CDFF8FCA1A8
:108FE0005846FFF7FBF804F10D097E4B04F1050824
:108FF000002840F0AE801870DAF80030387093F82E
:10900000D9305BB17F4B1B7873B17F49D1E9003216
:1090100013F1005342F10002C1E900323378013309
:10902000DBB2072B337001D90023337028462BF0B5
:10903000F4F9764A0123637513780133DBB2A37523
:109040001370DAF80030D3E90412C9F8042032783A
:10905000C4F80D10033203EBC20153F83230C4F8E8
:10906000053028464B68C8F804302BF046FC2846EB
:109070002BF02AFD17225A4928462BF08EFBDAF8EE
:10908000003093F8D920EAB15E4A1278D2B1D3F811
:10909000DC005D4BD3E900230421C1FB0023CDE9B3
:1090A000042322F4FF7222F0010202F500720492FE
:1090B00006AA12E9030002AB83E8030028460CCBA2
:1090C0002BF0B7FA012175E001228240144300F130
:1090D0001002002143F8221003EB800393ED000AF5
:1090E00014F082FEA4B23278494965E729F046FAC5
:1090F000434CC8F8000000214548DFF82881DFF81C
:1091000028E1DFED446A8C4614F8013B10F8012B8E
:109110001344DBB208F8013B8BB107EE902AB8EE9E
:10912000677A07EE903A27EE267AF8EE677A87EEAE
:10913000276AFCEEC67ACDED017A9DF804300EF870
:10914000013B0131082904F801CC00F801CCDBD146
:1091500041E7012228461A702BF05FF9F0239BF8B3
:10916000012063750BF1020104F1160037F02DFEAA
:10917000DAF80030D3E90412C9F804209BF8002083
:10918000C4F80D10033203EBC20153F83230C4F8B7
:10919000053028464B68C8F804302BF0AEFB284653
:1091A0002BF092FC9BF801202146163228462BF02A
:1091B000F4FA002128462BF02BFA28462BF0E5F98B
:1091C0004FF0FF30A0E61449144840F2AD1224F0ED
:1091D00079F9F5E7002097E64C2F0020AC08002035
:1091E0009E260020702E0020802E0020602E002061
:1091F000982E0020492E00209C2E00200000C07FC9
:109200004A2E0020582F0020682E0020482E0020D3
:10921000502F00200000C8421C4404080D9104088F
:10922000B0290020882E0020902E002030B589B073
:10923000002304468DF803300DF10301204610F0A1
:10924000D1FF012029F000FB9DF80330002BF3D063
:1092500001A9204610F0C8FF094B9DF81F201B886C
:109260001341DB0720464CBFBDF81C5047F6FF7585
:1092700010F0AFFF204610F08EFF284609B030BD39
:10928000FC08002030B52DED028B83B01BF03CF9BB
:109290003348334C9FED338A10F09BFF304810F079
:1092A0007AFF314810F095FF2F4810F074FF2F48D7
:1092B00010F08FFF2D4810F06EFF2D4810F089FF41
:1092C0002B4810F068FF2B4810F083FF294810F05E
:1092D00062FF29F053F904F569750190642101A832
:1092E00029F068FA2046FFF7A1FF07EE900AB8EED2
:1092F000E70A002080EE080A19F024FA2846FFF752
:1093000095FF07EE900AB8EEE70A012080EE080A02
:1093100019F018FA1548FFF789FF07EE900AB8EE22
:10932000E70A042080EE080A19F00CFA1048FFF74B
:109330007DFF07EE900AB8EEE70A022080EE080AE9
:1093400019F000FA0B48FFF771FF07EE900AB8EE2C
:10935000E70A032080EE080A19F0F4F9BEE700BF1F
:109360001006001000007A44B4090010580D0010D7
:10937000FC100010A014001013B504462020019228
:1093800008F0E0FC022029F05FFA2046074906F0C9
:10939000D9FB019A044630B10549064824F02EFD58
:1093A000204602B010BD0449F7E700BFC409002001
:1093B0008444040879C301089D44040838B51A4D53
:1093C0001A4C2B780BB1207838BD194B194A1B78F1
:1093D000194823701021FFF7CFFF2378174A184050
:1093E000207002211648FFF7C7FF2378154A18405E
:1093F000207001211448FFF7BFFF2378134A18405B
:10940000207040211248FFF7B7FF2378114A184017
:10941000207004211048FFF7AFFF23781840012384
:1094200020702B70D0E700BF5A2F0020592F00204A
:109430003A250020412204081006001047220408A3
:10944000B4090010629D0408580D00104C22040855
:10945000FC10001051220408A014001037B50E4D66
:109460002C78B4B908F05CFC6FF05701202008F0AC
:109470005FFC5721202008F081FC01232B7003237F
:10948000009306490648019423464FF4967228F04B
:10949000F7FE03B030BD00BF3A250020B8440408F1
:1094A0008592000870B53D4E337833B13C493D4854
:1094B00024F0A4FC0024204670BD3B4B102120204A
:1094C0001D7808F03FFC39493948012206F06AF955
:1094D0000446002848D03749324824F08FFC2C46F7
:1094E0000221202008F02EFC30493348012206F0EA
:1094F00059F9054600283CD030492A4824F07EFC22
:1095000025460121202008F01DFC28492C48012275
:1095100006F048F9044688B32A49224824F06EFC34
:109520002C464021202008F00DFC2049264801222D
:1095300006F038F9054630B324491A4824F05EFC99
:1095400025460421202008F0FDFB1849204801226F
:1095500006F028F90446D8B11E49124824F04EFC02
:109560002C4601233370A6E71B490E4824F046FC25
:10957000B6E71A490B4824F041FCC2E718490948EC
:1095800024F03CFCCDE71749064824F037FCD8E727
:109590001549044824F032FCE3E700BF5B2F0020AC
:1095A000E044040879C301083B250020C4090020D9
:1095B000742F0020074504085C2F00204145040853
:1095C000BC2F0020794504088C2F0020AD450408ED
:1095D000A42F0020E5450408234504085C45040841
:1095E00092450408C84504080146040807B51AF066
:1095F0008BFF1B481A4E1B4D1B4C002106F00EFA28
:109600001948002106F00AFA1848002106F006FA67
:109610001748002106F002FA1648002106F0FEF96C
:1096200028F0ACFF0190322101A829F0C3F83046A0
:1096300006F047FA2880204606F043FA0E4B1880C1
:109640000A4806F03EFA0D4B1880094806F039FA30
:109650000B4B1880074806F034FA0A4B1880E2E7F3
:10966000742F0020D62F00205C2F0020BC2F00205C
:109670008C2F0020A42F0020D42F0020DC2F0020CE
:10968000D82F0020DA2F002037B50E4D2C78B4B932
:1096900008F046FB6FF05701202008F049FB5721E6
:1096A000202008F06BFB01232B7003230093064955
:1096B0000648019423464FF4967228F0E1FD03B06A
:1096C00030BD00BF3B2500205C3C0408ED95000840
:1096D000014B28221A80704770360020014B082267
:1096E0001A8070477036002029F0AEB808B5054BD7
:1096F0001888FBF77FFB044B00211878BDE8084071
:10970000FBF726BA70360020B01B04080B4604494C
:109710008A681A448A600146024A1846FBF7F8BA7A
:1097200068090020213200201FB50B4A8DF8070080
:10973000936801339360094A9368013393600DF194
:1097400007010DF10F020120FBF7E2FA9DF80F006F
:1097500005B05DF804FB00BF4C090020680900203B
:10976000074B10B5012104461878FBF7F1F914B145
:10977000FF20FFF7D9FFBDE81040FBF74BBB00BF50
:10978000B01B040838B50A4A93680B449360094B30
:1097900005460C460A4618464FF0FF3137F02CFDBF
:1097A0002A4601462046BDE83840FBF7B1BA00BF63
:1097B0004C0900202132002010B5FBF70DFA074BB1
:1097C00028221A80064B1C7801212046FBF78EF9CF
:1097D00020460121BDE81040FBF7BAB970360020E1
:1097E000B01B040808B5074B01221A70064B186815
:1097F00028F020FE054B0F211868BDE8084028F02E
:1098000041B900BF21340020303A00206C360020DE
:1098100010B5044C22781AB90349044824F0EEFA32
:10982000207810BD3C2500204446040879C3010877
:1098300037B5194D2A7832BB184816F013F90120B4
:1098400027F099FF164B1860012027F094FF154B65
:109850001860012027F08FFF134B14491860012274
:1098600013480CF0E3FE044688B91249124824F06C
:10987000C5FA0123009311491148019423464FF47E
:10988000967228F0FDFC01232B7003B030BD0D490A
:10989000094824F0B3FAF6E73C2500200843040801
:1098A000683600203C3400206C360020D362040867
:1098B000E02F00206C46040879C30108864604089E
:1098C000D1A000088D460408014801F0B8BF00BFD0
:1098D0001C0900201FB50A4601910446014603AB4E
:1098E0000C480DF056F8019A48B102460A490B4857
:1098F00024F084FA0A4B00221A7004B010BD2146ED
:10990000084824F07BF8084A039993680B44936055
:10991000F3E700BF40340020A946040879C30108DA
:10992000203200201C3200200009002002680023A1
:10993000C0E90222C3800382704770B58388C4885F
:109940001B1B9BB29A4215D88E18B14204D1C38812
:109950001A44C280012070BDC36811F8014B1C700D
:10996000C3680568848801332C44A34208BF2B4692
:10997000C360EAE70020EEE72DE9F04F87B0054627
:10998000884616460BF0E4FB3E4B1B78CDE90401FC
:10999000002B46D03C4C3D4F2368386801334FF0D4
:1099A000FF31236028F06EF8394BDA88994622B1EE
:1099B000384B186808B128F03DFDB9F80630B9F801
:1099C0000420D21AAB88334492B20A339A4222DB83
:1099D0002B882F48ADF80E3002220DF10E01FFF753
:1099E000ACFF2B48082204A9FFF7A7FF26B128489F
:1099F00032464146FFF7A1FFDFF89CA0DFF89CB09C
:109A0000DFF88C8005F106090026AB78B3420BDC49
:109A1000636801336360002338681A46194627F0EB
:109A2000CFFD07B0BDE8F08F39F8023B019318462F
:109A300015F0E8FB0138019B06281BD8DFE800F091
:109A4000040E14040E141400184615F033FF0122FE
:109A500001464046FFF771FF0136D6E7184615F07C
:109A600029FF02220146F4E7184615F023FF0422DD
:109A70000146EEE74FF403725146584623F022FDAB
:109A8000EAE700BF20320020283A00203C340020C2
:109A900028340020303A0020C94604080D910408FB
:109AA000F8B50C4C054614F0CFFC616900222E2657
:109AB000D3B28B4200D3F8BD7343E71801323F8B1A
:109AC0008742F5D118332A7CE968E018BDE8F840F0
:109AD000FFF752BF7436002010B5C3889BB184686D
:109AE0000C60C3689C4207D21B1B1380C368836051
