:020000040800F2
:10400000FFFF0120DD510108F5D70008F7D70008B0
:1040100025D900083DD9000855D900080000000046
:10402000000000000000000000000000310D030847
:104030006DD9000800000000D10D0308E5D7000885
:104040005D5201085D5201085D5201085D52010890
:104050005D5201085D520108C9AF0008E9AF0008D0
:1040600009B0000829B000084DB0000825C10008BB
:104070005D52010849C100085D5201085D52010806
:10408000ADFF0008A1E400085D5201085D5201087F
:104090005D5201085D5201085D52010875B00008CB
:1040A0005D5201085D5201085D5201085D52010830
:1040B0005D520108E1A900085D52010819C100081C
:1040C0000DC100085D5201085D5201085D520108F2
:1040D0005D5201085D52010801E5000805E1000894
:1040E00051B100085D5201085D5201085D5201089E
:1040F0005D52010845AD00085D5201085D5201089E
:104100005D5201085D520108ADA800085D5201082A
:104110005D5201085D5201085D520108815101089C
:10412000914E00085D5201085D5201085D52010880
:104130005D5201085D5201085D5201085D5201089F
:104140005D5201085D5201085D520108E9D700087F
:10415000294E00085D52010879EB000875EB000854
:104160003DC1000831C100085D5201085D520108DF
:104170005D5201085D5201085D5201085D5201085F
:084180005D5201085D520108C7
:1041A000024B1B680022C3E92A027047000000206E
:1041B0000B4B0C481968D1E92A2310B40A4C00FBB8
:1041C00002F004FB0300A2FB043404445A1C44F133
:1041D0000000C1E92A205DF8044B20F00040704740
:1041E000000000202DF451582D7F954C830710B509
:1041F000044610D10268A2F1013323EA020313F04E
:10420000803F08D150F8042FA2F1013323EA0203C2
:1042100013F0803FF6D003781BB110F8013F002B5C
:10422000FBD100F0DBF9204610BD00BFC9B200F0A1
:104230000303002935D07BB10378002B57D0994276
:1042400052D0431C05E013F8012B002A4DD08A42BE
:104250004AD09A071846F6D170B441EA012604689C
:1042600046EA064601E050F8044F86EA0405A5F147
:104270000132A4F1013322EA050223EA04031343C5
:1042800013F0803FEFD0037843B1994202D106E0AA
:104290008B4204D010F8013F002BF9D1184670BCB6
:1042A00070474BB10378FBB1431C02E00278013345
:1042B000D2B199071846F9D10268A2F1013323EA75
:1042C000020313F0803F08D150F8042FA2F101330C
:1042D00023EA020313F0803FF6D0037823B110F8ED
:1042E000013F002BFBD170477047104670471846BE
:1042F000704700BF00000000000000000000000048
:10430000A2EB0300704700BF02780B78012A28BF98
:104310009A42F5D16DE9044540EA0104CDE902670E
:104320006FF0000C4FEA447212B380EA010414F0FB
:10433000070F6AD100F0070420F0070004F003051E
:1043400021F007014FEAC505F0E8042314F0040F3B
:10435000F1E804670CFA05F462EA040266EA04066E
:104360000AD063EA0403624667EA0407664603E08C
:10437000F0E80423F1E8046782FA4CF582EA0604C7
:10438000A4FA8CF46CBB83FA4CF583EA0705A5FA12
:104390008CF595B950E9022351E9026782FA4CF590
:1043A00082EA0604A4FA8CF483FA4CF583EA070542
:1043B000A5FA8CF52543DBD09CB92DBAB5FA85F466
:1043C00024F0070427FA04F1DDE9026723FA04F375
:1043D00003F0FF0001F0FF01FDE80445A0EB010040
:1043E000704724BAB4FA84F424F0070426FA04F1DE
:1043F000DDE9026722FA04F202F0FF0001F0FF019A
:10440000FDE80445A0EB0100704714F0030F3CD118
:1044100010F0030428D150F8082B51F8083B82FA19
:104420004CF582EA0305A5FA8CF55DB950F8042C29
:1044300051F8043C82FA4CF582EA0305A5FA8CF5A2
:10444000002DE8D02DBAB5FA85F424F0070423FA3C
:1044500004F122FA04F202F0FF0001F0FF01FDE88E
:104460000445A0EB010070474FEAC40420F00300AC
:1044700050F8082B21F0030151F8083B0CFA04F422
:1044800062EA040263EA0403C9E710F003041AD0E5
:10449000A1EB040120F00300E40750F8042B06D040
:1044A0000FD28B785FFAA2F4E41A06D12BB1CB7845
:1044B0005FFAB2F4E41A00D11BB920465DF8104B44
:1044C000704701F1040150F8042BCC0721F00301DF
:1044D00051F8043B48D824D222F07F4482FA4CF5AC
:1044E00094EA1325A5FA8CF50AD165B951F8043B75
:1044F00084EA0204B4EB036F0ED150F8042BEBE70F
:104500004FEA132355E035F07F454DD10878FDE89B
:104510000445C0F1000070474FEA126203F0FF0348
:1045200047E002EA1C4482FA4CF594EA1345A5FAE6
:104530008CF50AD165B951F8043B84EA0204B4EB66
:10454000034F0CD150F8042BEBE74FEA134330E054
:1045500015EA1C4528D10B884FEA124229E04FEAA0
:10456000124203EA1C4324E002F0FF0482FA4CF5F5
:1045700094EA1365A5FA8CF50AD165B951F8043BA4
:1045800084EA0204B4EB032F09D150F8042BEBE7C3
:104590004FEA13630DE015F0FF0F05D10B684FEAEA
:1045A000122223F07F4304E04FF00000FDE80445B1
:1045B000704712BA1BBA82FA4CF482EA0304A4FAD6
:1045C0008CF5B5FA85F402FA04F203FA04F34FEA23
:1045D0001260FDE80445A0EB1360704780EA010219
:1045E000844612F0030F4FD111F0030F32D14DF872
:1045F000044D11F0040F51F8043B0BD0A3F101322C
:104600009A4312F0803F04BF4CF8043B51F8043B3E
:1046100016D100BF51F8044BA3F101329A4312F0B6
:10462000803FA4F101320BD14CF8043BA24312F0BD
:10463000803F04BF51F8043B4CF8044BEAD02346BA
:104640000CF8013B13F0FF0F4FEA3323F8D15DF86C
:10465000044B704711F0010F06D011F8012B0CF834
:10466000012B002A08BF704711F0020FBFD031F8AC
:10467000022B12F0FF0F16BF2CF8022B8CF8002033
:1046800012F47F4FB3D1704711F8012B0CF8012BB6
:10469000002AF9D1704700BF002A46D040EA010342
:1046A00013F00303F0B425D1032A23D904680D685D
:1046B000AC423CD1043A35D0A4F1013525EA0404DA
:1046C00014F0803F2ED1071D0D1D0DE057F8043B5F
:1046D0000E68A3F10134B34224EA030427D1043A5B
:1046E00020D014F0803F1DD1032A2946384605F119
:1046F0000405EBD803780D789D4202F1FF360ED108
:1047000086B17BB1044602E082180BD053B114F895
:10471000013F11F8015FAB42A6EB0402F4D0581B35
:10472000F0BC70470020F0BC70471046704703781B
:104730000D789D4202F1FF36E3D0F0E770B440EA15
:104740000104A30727D1032A25D90B46064619469B
:1047500053F8045BA5F1013424EA050414F0803F0A
:1047600006D1043A032A46F8045B1946EFD882B111
:1047700033460C7803F8014B551E74B132442E4475
:1047800005E011F8014FF51A03F8014B2CB19A42DC
:10479000F7D170BC70470646E9E7002DF9D01D44FB
:1047A000002203F8012BAB42FBD170BC704700BF65
:1047B000024B1A6801235C3200F002B800000020AE
:1047C000F0B418B307460D4617F8016B01E0A64296
:1047D00017D015F8014B002CF9D1E6B117F8015BA1
:1047E0000C4601E0002BF9D014F8013B9D42F9D1B1
:1047F00055B1002307F8013C176006463046F0BC6F
:10480000704763B13846DDE72F46F5E710680028AA
:10481000D8D10646F2E730461660F0BC7047176004
:1048200006460370EAE700BF0123FFF7C9BF00BFD8
:10483000012B2DE9F84F41D0242B98463ED80F4646
:10484000DFF81CC100E02F463D4615F8014B1CF86F
:10485000046016F00806F6D12D2C6CD02B2C0ABF64
:1048600095F800B0A346BD1C002B46D0102B57D0A6
:10487000002E14BF4FF000496FF000490027B9FB2C
:10488000F8FEBC4608FB1E9A07E0E64513D32FD07E
:104890000CFB084C012715F801BBABF13004092CC7
:1048A00005D9ABF14104192C0FD8ABF13704A34261
:1048B00013DD002FE9DA4FF0FF37ECE700F06CF87A
:1048C000162303600020BDE8F88FABF16104192CBA
:1048D00003D8ABF15704A342EBDC002F25DB0EB16C
:1048E000CCF1000C0AB177BB11606046BDE8F88FCF
:1048F000A245CDDA4FF0FF37CDE7BBF1300F03D043
:104900004FF00A084346B3E72B7803F0DF03582B38
:104910001BD14FF0100895F801B043460235A7E7C8
:10492000BBF1300F15D09846A2E7222303603AB1BD
:10493000691ECC46D8E795F800B00126BD1C93E768
:10494000CC466046D2E7E146F2E74FF0080843461E
:104950008EE72C7804F0DF04582CDAD0984687E7ED
:104960004DB6030864E700BF10B4044C13460A4672
:10497000014620685DF8044B5AE700BF00000020A4
:1049800010B4044C13460A46014620685DF8044BF7
:104990004EE700BF00000020014B1868704700BFC1
:1049A0000000002013B5C3B20C20154A5843141858
:1049B0000121105812F08EFE684612F0CFFC2389B8
:1049C000009340F203136068ADF804306946002399
:1049D0008DF8073012F080FC01230A48A17A1A46AC
:1049E00012F085FA074812F0C0FA0648022112F0C8
:1049F000C4FA0028F9D0034812F0BCFA02B010BD86
:104A000054B70308002101407FB5144A01238340B5
:104A100008281360124B1AD00A2815D0062819D07E
:104A200000221A601B6800930023CDE90233ADF821
:104A3000043004930B48012369468DF8143012F0BA
:104A400003FA07B05DF804FB4FF08072E9E74FF01E
:104A50000072E6E74FF04072E3E700BF98200020C5
:104A60009C2000200021014000B58BB012F0DEF93F
:104A700004A812F00FFA684612F02AFA01214FF446
:104A8000007012F04BFE00236846CDE90033CDE9FB
:104A9000023312F009FA0C20FFF7B6FF0348012198
:104AA00012F01CFA0BB05DF804FB00BF00210140BE
:104AB00038B5FFF777FF35F0A1FE0022094B36F03D
:104AC00044F9094B044618680D4635F015FF0246B7
:104AD0000B462046294636F03AF936F04FFB00EEF9
:104AE000100A38BD0000084098200020F7B50C23BC
:104AF000164DC4B26343EF18E8580E46012112F078
:104B0000E9FD3A8900920023012E0CBF01221A46CA
:104B1000ADF806308DF804200DD18DF806300C204C
:104B200000FB0455012368688DF80530694612F0D2
:104B3000D3FB03B0F0BD022E03D0032EEFD102232E
:104B400000E001238DF80730E9E700BF54B7030800
:104B5000054B0C22C0B202FB00300A1E18BF012216
:104B60000189406812F00ABC54B7030808B5064B27
:104B70000C22C0B202FB00300189406812F0F4FB45
:104B8000431E5842584108BD54B7030810B50446A7
:104B900086B0104812F002FE4FF482720023ADF886
:104BA00008200C48ADF806304FF400720DF10601F4
:104BB000ADF80A30ADF80C30ADF80E30ADF810207D
:104BC000ADF81430ADF81630ADF8124012F042FED8
:104BD00006B010BD0030014070B5032292B0002134
:104BE00001202CF025FC414B0322186000210120FC
:104BF0002CF01EFC3E4B186001202CF02CFD3D4B90
:104C0000012118604FF4805012F088FD0121084600
:104C100012F060FD01214FF4800012F05BFD0522CF
:104C20001146354812F0AFFB33480522062112F039
:104C3000AAFB31480522072112F0A5FB2F4B2E4875
:104C4000202201A9CDE9012312F046FB802301A90E
:104C500029480193402612F03FFB01A926480196FE
:104C600012F03AFB4FF4806300240993244B049321
:104C70004FF0C0654FF40033214622480D93CDE933
:104C80000E4410940B940C9411940A940894079475
:104C900005940395069612F035FA03A9194812F007
:104CA00007FA214618480694039512F02BFA03A937
:104CB000154812F0FDF907238DF801308DF80240F8
:104CC0004423012468468DF800308DF8034012F02B
:104CD00089FC382368468DF8003012F083FC2820C8
:104CE000FFF754FF094B1C7012B070BDF820002074
:104CF000E8200020F0200020000002400202000214
:104D00000C3001408864024010640240A120002061
:104D1000F8B501F17043B3F5803F06460C461746DF
:104D200004D22B492B48E22228F040FB07F17043C4
:104D3000B3F5803F04D226492648E32228F036FB0B
:104D4000254DEC60254C6E600122E760102128465D
:104D5000666012F01DFA01221021204612F018FAA6
:104D60001F49284612F0FCF91E49204612F0F8F9B6
:104D70000121284612F0C6F90121204612F0C2F99D
:104D800019480122022112F090FD01221146164815
:104D900012F08BFD1448012112F07BFD134B4FF0F4
:104DA000FF3118682CF0DEFD01280ED1104B4FF0BA
:104DB000FF3118682CF0D6FD431E5C425C410A4866
:104DC000002112F066FD2046F8BD0024F7E700BF81
:104DD000F0B703083BFE03088864024010640240F9
:104DE000400F00203D00801000300140F8200020DE
:104DF000E820002010B5064B04464FF0FF3118683C
:104E00002CF0B0FD2046BDE81040FFF7BFBE00BF4C
:104E1000F02000200348002300681A4619462CF0B1
:104E20003FBB00BFF020002013B5002422461348EA
:104E30000194102112F0ACF91149104812F0F2F966
:104E40000F490E4812F08CF922460E48022112F04A
:104E50002CFD0A48214612F055F90B4B01A91868A0
:104E60002CF07AFC019B3BB1084B4FF080521A604A
:104E7000BFF34F8FBFF36F8F02B010BD8864024045
:104E80000008002000300140F820002004ED00E080
:104E900013B50024224613480194102112F078F92A
:104EA0001149104812F0BEF90F490E4812F058F996
:104EB00022460E48012112F0F8FC0A48214612F061
:104EC00021F90B4B01A918682CF046FC019B3BB162
:104ED000084B4FF080521A60BFF34F8FBFF36F8FB4
:104EE00002B010BD106402402000001000300140EC
:104EF000E820002004ED00E0064A13784BB9064B89
:104F000006491960064B5B1A06499B100B6001238A
:104F10001370704704210020FC200020BC8A040884
:104F2000088B04080021002008B5FFF7E5FF014BBE
:104F3000186808BD0021002070B50D460446FFF733
:104F4000DBFF094B1A68094B196800239A4201DC00
:104F5000002070BD51F823000678A64202D14678A1
:104F6000AE42F6D00133F1E700210020FC20002002
:104F70002DE9F0410646FFF7BFFF0B4B1F680B4BB7
:104F8000D3F800800024A74203DC00252846BDE8B2
:104F9000F08158F8245030466968FFF7B5F90028C9
:104FA000F4D00134EFE700BF00210020FC200020F6
:104FB00030B5034644680020844202DC4FF0FF30E5
:104FC00030BD1A68155C8D42FAD002445278023224
:104FD0001044F1E7014B1868704700BF082100201A
:104FE000044B1B688342C3BF034B7C2202FB00308F
:104FF00000207047082100200000001008B5FFF7CE
:10500000D7FFC043C00F08BDF8B5044617461D467C
:10501000FFF7CEFF061E10DB21688B196C1E5A7835
:105020009442A8BF1446023622463144384635F031
:1050300040FD00233B552046F8BD00233B704FF058
:10504000FF34F8E730B51F4C8BB02368CDF80A3039
:10505000A388ADF80E300546A3798DF810300021F5
:1050600017220DF1110035F03BFF54F81E0F009090
:10507000A388ADF8043005F1700400230121204617
:10508000CDF80630FFF7BAFF30B11E230DF10A024A
:1050900001212046FFF7B8FF02212046FFF7AEFFAF
:1050A00028B10A236A4602212046FFF7ADFFAA6F06
:1050B000054B9A4203D10549054828F013FE0BB071
:1050C00030BD00BFECB403081CBC03084BB8030898
:1050D00069C301082DE9F04FA54B8BB01D7800AFD7
:1050E0007B60002D40F086807D720CF0B5FC07F1EE
:1050F00009000CF0F7FC064610B39E4CDFF8BCA28A
:10510000DFF87C92DFF8B8B2A8467B7A98451DDAC2
:105110002346702200215FFA88F00CF029FD002858
:1051200000F0B2802378EB2B68D09349484628F0F2
:10513000D9FD42465946484628F0D4FD002697E05E
:105140008E498F4828F0CEFD7E7201268D4CD4F812
:10515000008098F800304BB38B4904224046FFF79B
:105160009BFA18B3424689498548DFF858A2DFF810
:105170001082DFF800B228F0B5FD216839603A23CB
:1051800008467B8135F0DAFA083020F00700E9465E
:10519000ADEB000D39686846FFF720FA07F10A0108
:1051A0006846FFF705FB002877D1CD46784C0EB155
:1051B0007B7A23606F4E724A4FF00008B146C346B7
:1051C000C246012120688045C0F28E8001B921606D
:1051D000DFF8F491DFF8F4B1DFF8A4A14FF0000894
:1051E00023689845C0F2A8800DB1002323607A6837
:1051F000012313702C37BD46BDE8F08F07212046F0
:1052000028F087FBE379C0B2834201D061498DE782
:10521000237A0BB1604989E7617A04F10800023111
:1052200028F077FB534A617A7C2303FB08230B4465
:10523000C2B29B7A9A4204D05849484628F052FD9F
:1052400077E704F10A03C4E91C3107F10A021E23BF
:10525000012104F17000FFF7D7FE607960B1A179F8
:10526000FFF76AFE00B94E48A0672046FFF7EAFE46
:1052700008F101087C3448E7BB7A002BF3D007F132
:105280000A00FFF775FEEDE7386042465146484692
:1052900028F028FD3B681E46EAE72060FFF768FE1D
:1052A00050B922683F49404628F01CFD07F10A0129
:1052B0000020FFF77DFA76E7C36913B9036A002B74
:1052C000F4D07B7A042B0AD80133DBB27C227B72C8
:1052D000013B02FB03B3344922689867E3E7514678
:1052E000404628F0FFFCE1E7D9F8780080681AEA28
:1052F000000008D02D4B184205D02D49104628F04B
:10530000F1FC1F4A0021D9F87800C0681BEA000FA1
:1053100005D02849104628F0E5FC194A0021D9F8A3
:10532000783098684AEA000AD86808F101084BEA20
:10533000000B09F17C0945E7BDB9B36F1B7C23B1B4
:1053400099F800205AB989F800301B4AB36F1178D8
:105350005B7C0B43137008F101087C3640E79342F5
:10536000F3D05946504628F0BDFC0125EDE700BFBB
:105370000C21002000000010CCB803087AB8030804
:1053800069C30108300400201ABA03081FBA0308D1
:1053900008210020F6B8030825B9030855B9030809
:1053A0001CBC030846BA030883BA0308F3E3FFFFF3
:1053B000EFBA030868BB03080E210020D2B9030826
:1053C00088B90308B3BA03080D210020DFBB030826
:1053D000014B1878704700BF0D210020014B187851
:1053E000704700BF0E2100204FF0A0407047000022
:1053F0004FF4883070470000014B1868704700BFB9
:10540000942F002041F6FF7070474FF48050704792
:1054100041F2F4007047032970B50446154603D8DD
:10542000036903B15A5470BD0429FCD1EA0702D5BF
:10543000036A03B19847AB07F5D5636A002BF2D036
:10544000BDE87040184700002DE9F04704460E46BD
:105450001746FFF7BFFDB4F1805F054622D24FF03B
:1054600000081AE0B4F5805F14D3A4F58059B5EBB9
:10547000991F4FEA99100DDDFFF7B2FD836F17F802
:10548000082019F0200F0CBF5869986909F01F0116
:10549000FFF7C1FF08F101080134B045E2D3012054
:1054A000BDE8F087230F013B4500B5EB530F4FEAF2
:1054B000530801DC0020F3E7404603F00105FFF745
:1054C0008FFD826F536905B19369002BF2D0D3F839
:1054D00000E0BEF1000FEDD004F17040A0EB487089
:1054E0003A463146A0EB0570F446BDE8F047604708
:1054F00003461046CA18B2F5005F03D20A4699B2B5
:1055000005F0C0BC0020704710B45418702C04D8AB
:105510005DF8044B89B20CF08FBB00205DF8044BA2
:105520007047000018F06CB8B0F5805FF8B50D4614
:1055300011461BD2B0F5806F35D255FA80F3342B6B
:10554000C2B230D8040A342318486343C61803F59E
:105550006D731344002786F8E4732A46184435F027
:10556000A8FA204622F0D6F90120F8BDA0F5805017
:10557000B0F5806F17D255FA80F33D2BC2B212D826
:10558000040A3D2309486343C61803F530731344E6
:10559000002786F8FC722A46184435F08AFAE0B2F1
:1055A00022F080FAE0E70020DFE700BF785001201A
:1055B0002DE9F3411E468368044690460F469847FE
:1055C00010F0010F0CBF01250325820748BF45F0ED
:1055D00020054307636848BF45F040050BB145F01F
:1055E000040523680BB145F00805237B0BB145F09A
:1055F00010053570236A626A003B18BF01230AB1A7
:1056000043F0020373706369C6F80230A369C6F8F9
:105610000630C6F80A801122394606F10E00FFF75F
:105620008DF8E369A3B1384635F088F833183A228B
:105630009A73E16901910546084635F07FF80F3508
:1056400001990246701902B0BDE8F04135F031BA57
:1056500002B0BDE8F08100002DE9F04F2DED028B86
:1056600083B000AF05460C469046FFF7B3FCB5F19A
:10567000805F78605FD222460021404635F030FCE2
:10568000002D55D134B901200C37BD46BDEC028B3D
:10569000BDE8F08F0323013C88F80030E4B24FF0FE
:1056A0000109002CEFD06B4608EE103A7A6805EB42
:1056B00009033B60013BB2EB931F4FEA9316E2DD17
:1056C00090B03046FFF78CFC8246002140226846AD
:1056D00035F006FCDAF878104869EB4630B172070D
:1056E00049686B4602F18052FFF762FFDAF87810E2
:1056F000886930B1721C49680BF120035207FFF72B
:1057000057FF3B68B1010131591AC1F1400AA24566
:10571000A8BFA24608EB09005246594435F0C9F922
:1057200018EE103AA4EB0A04E4B2D1449D46B8E75F
:105730004FF00009B5E77A682B0F013B5000B0EB42
:10574000530F4FEA530901DC00209DE7484603F060
:105750000106FFF745FC826F536906B19369002B80
:10576000F2D05B68002BEFD005F17040A0EB4970E0
:1057700042462146A0EB0670984785E7F0B5B0F5A4
:10578000805F85B004460E46154619D24FF48071ED
:105790002A4802F0C3FC2949013C0023B34202DB42
:1057A000012005B0F0BD671C06D0A04206DD625C9A
:1057B000EA543C460133F1E70246F9E70022F7E7F5
:1057C000A0F58053B3F5805F18D24FF480711B4869
:1057D00002F0C6FCA4F580541849013C0023B342F2
:1057E000DEDA621C06D0A04206DD625CEA540134B7
:1057F0000133F4E70246F9E70022F7E710F0FF0172
:10580000A0F5005716D10D2E16D11022684635F09E
:1058100067FB6946C7F3072002F05EFC019B2B6023
:10582000029B6B60039BAB60009B003B18BF012396
:105830002B73B5E70020B4E70846B2E7D026002076
:1058400010B4084C0B46246811461A18A24204D81A
:105850005DF8044B1A4604F0EBBD00205DF8044BE4
:10586000704700BF942F002003461046CA18B2F5B7
:10587000005F03D20A4699B205F0ECBA00207047E7
:1058800010B45418702C04D85DF8044B89B20CF095
:105890006FB900205DF8044B7047000017F0C2BEDE
:1058A0000346B3F5805F10B5104612D2B3F5806F92
:1058B00020D251FA83F4342CDAB21BD81B0A3424D8
:1058C00004FB03230A460C49194435F0F2F8012081
:1058D00010BDA3F58053B3F5806F0BD251FA83F45A
:1058E0003D2CDAB206D81B0A3D2404FB03230A46EA
:1058F0000249E9E70020EBE72C540120385301204E
:1059000001481AF043B800BF40BC03082DE9F84332
:10591000FFF70AFBFFF7DEFBFFF7F2FFFFF75AFB8B
:105920001449DFF85880144FDFF8549002460646B9
:10593000114828F0D7F90024B44201DBBDE8F88310
:105940002046FFF74DFB836FDA69054652B15A686E
:1059500052B123464946384628F0C4F9AB6F284671
:10596000DB6998470134E7E722464146384628F08C
:10597000B9F9F3E778BC030869C30108C7BC030899
:1059800095BC03082DE9F047FFF724FBDFF84490AE
:10599000DFF84480DFF844A0064600240127B44223
:1059A00002DB3846BDE8F0872046FFF719FB836F1E
:1059B0001B6A3BB198472246054628B151464046EE
:1059C00028F090F90134EAE74946404628F08AF980
:1059D0002F46F7E70BBD030869C30108ECBC0308B9
:1059E00070B5134D134E034604462A4603CAB2420D
:1059F00020606160154604F10804F6D10E4D0F4E8B
:105A000003F128042A4603CAB242206061601546A9
:105A100004F10804F6D10A4C0A4D5033224603CA59
:105A2000AA4218605960144603F10803F6D170BD0C
:105A30000000024028000240000402402804024006
:105A4000000802402808024070B5114D0246034686
:105A500000F12806186859682C4603C40833B3427D
:105A60002546F7D10B4D02F15006186859682C46AF
:105A700003C40833B3422546F7D1074D783218687E
:105A800059682C4603C4083393422546F7D170BDAC
:105A90000000024000040240000802402DE9F843E3
:105AA0000F4CDFF84080DFF84090054601270026C4
:105AB00034F8021C54F8060C11F056FC854206D04E
:105AC0002B4622464146484628F00CF9002701366D
:105AD0000B2E04F10C04EBD13846BDE8F88300BF6F
:105AE0003A0400202CBD030869C301082DE9F041E8
:105AF000A2B00EF0EFFB01210446072011F0EAFDF1
:105B000004A8384DFFF76CFF00262F46B046BB882F
:105B100057F80C0B02A90136CDE9023811F0DCFB75
:105B20000B2EF4D100264FF0010837467CB3AB882A
:105B30002868029302A9ADF80C808DF80E7011F060
:105B4000CBFBA988286811F015FC0197019BB3F5E0
:105B50007A7F3EDB0120FFF7A1FFA9880446286871
:105B600011F00AFC0197019BB3F57A7F35DB002029
:105B7000FFF794FF0136002802A955F80C0B8DF8A9
:105B80000C7008BF002411F0A7FB0B2ECED104A887
:105B9000FFF75AFFCCB101231348ADF80C30802633
:105BA000002302A98DF80E304025029611F094FBD7
:105BB0000D48029502A911F08FFB0B48314611F0F8
:105BC000DBFB0948294611F0D7FB204622B0BDE88F
:105BD000F081019B01330193B8E7019B01330193ED
:105BE000C1E700BF34040020000402402DE9F04F5B
:105BF000A5B00EF06FFB01210446072011F06AFDED
:105C000006A8DFF8C081FFF7EBFE002546462F46C9
:105C1000B38856F80C0B04A90135CDE9043711F00F
:105C20005BFB0B2DF4D10026664D4FF0010B374680
:105C3000002C51D0AB882868049304A9ADF814B0A7
:105C40008DF8167011F048FBA988286811F092FBB6
:105C50000397039BB3F57A7F5CDB4346A1464FF085
:105C6000000A18460121019300F0E8F90AF1010A3F
:105C70000028019B08BF4FF00009BAF10B0F03F198
:105C80000C03EED1A988286811F076FB0397039BDB
:105C9000B3F57A7F42DB43464FF0000A18460021F5
:105CA000019300F0CBF90AF1010A0028019B08BF1B
:105CB0000024BAF10B0F03F10C03EFD1002C55F8BF
:105CC0000C0B8DF8147004A906F1010618BF4C46A0
:105CD00011F002FB0B2EABD13B4D00262F46B046F8
:105CE000BB8857F80C0B04A90136CDE9043811F034
:105CF000F3FA082EF4D1CDF80C8042F20F72039B18
:105D000093420FDD00260C2784B90024204625B0DD
:105D1000BDE8F08F039B013303939AE7039B0133A4
:105D20000393B4E7039B01330393E8E707FB0650B3
:105D3000012100F083F90136042E0446E4D1012745
:105D40004FF0000842F20F79002CDED0AB8E286BAA
:105D500004A9CDE9043711F0BFFAA98E286B11F020
:105D600009FBCDF80C80039B4B4526DD284600211E
:105D700000F064F90136082E044605F10C05E3D164
:105D80000028C2D001238026ADF8143004A90023D6
:105D90000E488DF816304025049611F09DFA04A99E
:105DA0000A48049511F098FA3146084811F0E4FACF
:105DB0000648294611F0E0FAA8E7039B0133039354
:105DC000D1E700BFB804002078050020000402409D
:105DD0002DE9F043A5B00EF07DFA0121044607201D
:105DE00011F078FC06A82F4FFFF7FAFD00253E467C
:105DF000A846B38856F80C0B04A90135CDE9043840
:105E000011F06AFA072DF4D100254FF001082E4653
:105E100054B3B7F804903868019004A9CDF81090F5
:105E2000ADF814808DF8166011F056FA01984946C5
:105E300011F0A0FA01980396039BB3F57A7F1BDB60
:105E40004946019011F098FA01980396039BB3F527
:105E50007A7F15DB04A901358DF8146011F03CFA46
:105E6000072D07F10C07D3D106A8FFF7EDFD5CB9AC
:105E7000204625B0BDE8F083039B01330393DBE7A5
:105E8000039B01330393E1E7074B1D78002DEFD00F
:105E9000064B1B68DC69002CEAD00020A0472C468A
:105EA000E6E700BF20D90308A2200020102100202F
:105EB00010B5094C23783BB90848FFF759F8084B4F
:105EC000186010B10123237010BDBDE810400549D2
:105ED000054827F007BF00BFA220002042C20308E8
:105EE0001021002004D9030869C301082DE9F843F3
:105EF0000F4CDFF84080DFF8409005460127002670
:105F000034F8021C54F8060C11F02EFA854206D023
:105F10002B4622464146484627F0E4FE002701363C
:105F2000052E04F10C04EBD13846BDE8F88300BF20
:105F3000420500202CBD030869C301082DE9F0418A
:105F4000A2B00EF0C7F901210446072011F0C2FBF0
:105F500004A8384DFFF744FD00262F46B046BB8805
:105F600057F80C0B02A90136CDE9023811F0B4F94B
:105F7000052EF4D100264FF0010837467CB3AB88DC
:105F80002868029302A9ADF80C808DF80E7011F00C
:105F9000A3F9A988286811F0EDF90197019BB3F5E1
:105FA0007A7F3EDB0120FFF7A1FFA988044628681D
:105FB00011F0E2F90197019BB3F57A7F35DB002000
:105FC000FFF794FF0136002802A955F80C0B8DF855
:105FD0000C7008BF002411F07FF9052ECED104A863
:105FE000FFF732FDCCB101231348ADF80C30802609
:105FF000002302A98DF80E304025029611F06CF9AD
:106000000D48029502A911F067F90B48314611F0CD
:10601000B3F90948294611F0AFF9204622B0BDE88E
:10602000F081019B01330193B8E7019B0133019398
:10603000C1E700BF3C0500200004024038B50D4612
:1060400004468188006811F08FF9854207D0054920
:1060500005482B46A21D27F045FE002038BD012033
:10606000FCE700BFBCD9030869C30108014B1878DD
:10607000704700BFA320002080B5264D264C274F37
:10608000274EDFF8A0A0DFF8A09000232B7023702C
:106090003B78337092B04FF001084FF47A702CF0D7
:1060A00043FB3B7832789A420CD003220DF1060074
:1060B0008DF808308DF806208DF807800EF0AEFBC5
:1060C0003B7833709AF800302A789A420CD00DF160
:1060D00006008DF808308DF806808DF807800EF0E8
:1060E0009DFB9AF800302B7099F9003094F900204C
:1060F0009A42D2D007220DF106008DF808308DF8B3
:1061000006208DF807800EF089FB99F80030237087
:10611000C3E700BF15210020172100201421002013
:1061200016210020D8050020D905002037B5074CDE
:10613000237843B901250649064801930095962224
:106140002CF00EF8257003B030BD00BFA320002056
:1061500000DA0308796000082DE9F3411EF046F9E2
:106160002A4E2B4D2B4F3078002849D02A4B2B4CF0
:10617000042200219E4613F8018B14F801CBE04560
:106180001CBF03F801CC0146013AF4D131B12448D7
:10619000CDF800E004232E2105F0DEFB3B78012B37
:1061A0002ED9204B204C1B7822789A420DD0237098
:1061B00001231A461A4800942E2105F0CDFB1B4BF3
:1061C00022781B481A7018F015F92B7823B94FF470
:1061D0007A702CF0A9FAC6E7DFF85C802CF03EF963
:1061E000D8F80030984204460AD9124B00930C4864
:1061F000012302222E21643405F048FBC8F8004038
:106200002B78002BE3D00A20E3E700BF1D210020FC
:106210001A21002019210020DB050020E0050020C4
:10622000C4090020DF050020DA0500201B21002022
:10623000088B0408182100202021002010B5104BE5
:106240001878A0B10F491048104CFEF75DF878B9E6
:106250000123237022780E4C002A14BF0122002251
:10626000227003D10B490C4827F03CFD207810BD6B
:1062700004490A48FEF748F80028EBD10223E8E772
:10628000A42000202421002030DA03081921002056
:106290001D21002048DA030869C301083CDA03081D
:1062A00073B5124E3478F4B9114D12491248019465
:1062B00003230093962223462BF052FF0D22214602
:1062C000284634F00DFE0C2310222E210B48009599
:1062D00005F0DCFA0A4B0B4918702A460A4827F0E9
:1062E00001FD0123337002B070BD00BFA420002067
:1062F000242100206DDA030859610008C409002038
:106300001C2100207FDA030869C30108034B1878B9
:10631000034B1B780BB140F004007047A520002010
:10632000A0210020044B1878044B1B78022B08BFD7
:1063300040F00400704700BFA52000203821002055
:106340000120704738B50A4C01221046022123462D
:1063500026F086FE0125102320462372E58026F0D4
:10636000F9FA64202CF0E0F9024B1D7038BD00BF33
:10637000A2210020A0210020F8B5194F01253D7071
:1063800026F06EFD4FF4E13007F0F0FE154B1C785F
:1063900029462046FEF7AAFB00212046FEF7D8FB3F
:1063A000114B1E7829463046FEF7A0FB00213046EF
:1063B000FEF7CEFB0A202CF0B7F929462046FEF75F
:1063C000C7FB02212046FEF791FB64202CF0ACF9BC
:1063D00000213046FEF78AFB02233B70F8BD00BF68
:1063E0003821002050B703084DB7030870B5194D88
:1063F0002E786EBB184B01211878FEF777FB174BF0
:1064000001211878FEF772FB2AF0F2FA144B18609B
:10641000144B1C7801212046FEF768FB31462046CC
:10642000FEF796FB26F0CEFC26F0FEFA26F040FAA8
:1064300026F034FE01212046FEF78AFB0221204689
:10644000FEF754FB0849094827F04CFC01232B7048
:1064500070BD00BFA52000204EB703084FB703084A
:106460003421002050B70308C8DA030869C30108C3
:1064700038B50B4D0B490446024605F1080034F0CF
:1064800018FB41F288312846EC8026F077FA30B9C3
:10649000BDE8384004490548882226F087BF38BD4A
:1064A000A221002039210020E5DA030846DB030899
:1064B0002DE9F341404C1E460546234688461746C3
:1064C00004210F22012026F0CBFD33691E68D5B9C7
:1064D000022323720423E37241F288310923204608
:1064E0006572A5722573C4F80D60E38026F046FA44
:1064F00020B932493248812226F058FF31493248CA
:10650000402227F0FCFB304D42463946284627F012
:1065100000FCEB689E4204D228492C48AF2226F0AA
:1065200045FF294F384627F0FCFB00283FD126487D
:1065300027F01AFCEB699E4235D1234827F019FC5D
:1065400008B1FFF795FFEA68EB699A4204D01B494E
:106550001F48BB2226F02AFF002304226372A37285
:10656000237315482272092341F28831E272C4F87C
:106570000D60E38026F002FA20B9104910489222FB
:1065800026F014FF41F288331248009301220023C1
:10659000006811462AF03AFAC30704D407490E48A6
:1065A0009C2226F003FF012002B0BDE8F0814020CC
:1065B000FFF75EFFB6E700BFA2210020E5DA03087F
:1065C00046DB0308392100207C2100204EDB030834
:1065D0007BDB030834210020C7DB0308024B0121C9
:1065E00018682AF0C1BA00BF34210020002007F04B
:1065F0002BBA10B50446802007F026FAA0B2BDE8F9
:10660000104007F031BA000010B5054C237833B9BB
:1066100007F0AEF903480AF0CDFF0123237010BD47
:10662000A6200020E40500202DE9F04F2DED048B7D
:106630008DB01DF0DBFE0EF083FD3F4EDFF82081B4
:1066400005460F460A202CF06FF83C4B3A49187863
:1066500007F066FCB6F904305B421BB2002B08EE73
:10666000103AB8BF5B429BB2632B5FD8B6F90240C9
:10667000644223B2002B09EE103AB8BF5B429BB2D2
:10668000632B53D82E4B1A782E4B002A4AD072898E
:10669000DFED2D6ADFED2D7A07EE102AB8EE477A8E
:1066A000E7EE267AB0EE677ADFED297AB4EEE77A84
:1066B000F1EE10FA58BFF0EE477AC3ED007AD3ED51
:1066C000008A0EF03DFD824689460EF039FD8B466C
:1066D00020490978044611BB3178B0291FD1F8EE62
:1066E000C97A0621BAEB0500B8EEC88A8DF8001009
:1066F00069EB0701CDED037A8DED028ACDED048AB9
:10670000CDED058A34F076FB9FED137A07EE900A03
:10671000C7EE877A6846CDED067A25F003FF254659
:106720005F468FE70D4A12681A60C8E798F8003094
:10673000013388F8003085E7C05601204FB70308C1
:10674000A6220020F0050020B84B513AB6F3DD3EFA
:10675000CDCCCC3DA722002000247449EC050020BC
:10676000A522002010B5084B1C7834B10748FEF76D
:10677000FFFBBDE81040036A18470549054827F0AC
:10678000B1FA204610BD00BFA422002022C2030897
:106790006CDC030869C3010837B50F4D2B78CBB902
:1067A0000E4B1C78B4B90E48FEF7E2FBC3692046D5
:1067B00098470C4B187807F0C9F958B10323009398
:1067C00009490A48019423464FF496722BF0C8FCFD
:1067D00001232B7003B030BDA3220020A42200208F
:1067E00018C203084FB7030899DC0308296600089C
:1067F00037B50F4B1B78CBB90E4D2C78B4B90E487A
:10680000FEF7B6FBC369204698470C4B187807F093
:106810009DF958B10323009309490A48019423467E
:106820004FF496722BF09CFC01232B7003B030BD0B
:10683000A3220020A422002022C203084FB703088D
:1068400099DC03082966000810B5084B1C7834B1A0
:106850000748FEF78DFBBDE81040036A184705495D
:10686000054827F03FFA204610BD00BFA3220020B4
:1068700018C203086CDC030869C3010818207047BC
:106880002C20704770B571B1124A034600F1240103
:1068900014781C7054785C7094789C7003338B422D
:1068A00002F10302F4D1047841788278034600F1C2
:1068B0002105DE781E701E795E705E799E7003334E
:1068C000AB42F6D180F8214080F8221080F82320D6
:1068D00070BD00BF98DD030830B5214B09B100221F
:1068E0001A6093ED007A1F4D1F4C2049F7EE007A95
:1068F000B4EEE77AF1EE10FA44BFDFED1D7A77EEE1
:10690000277A00F12402C3ED007A2B7807EE103AC3
:10691000B8EEC77A033027EE277ABCEEC77A17EEB7
:10692000103A00F8033C237807EE103AB8EEC77A25
:1069300027EE277ABCEEC77A17EE103A00F8023C31
:106940000B7807EE103AB8EEC77A27EE277ABCEE3E
:10695000C77A17EE103A00F8013C8242D5D130BD1B
:10696000D022002076060020750600207406002044
:10697000CDCC4C3DF0B500F1240439B103460022E2
:106980001A705A709A7003339C42F9D1104940F240
:106990000F2540F203160B784A78DF08DB0003F07E
:1069A000380343EA521302F01F026F4373436A43F2
:1069B000173721331732BF119B11921107704370A3
:1069C00082700330844201F10201E4D1F0BD00BFC6
:1069D000132300207FB51B4B1A681B798DF80A30F2
:1069E000194BCDF8062000211A681B79CDF80B2031
:1069F0008DF80F300DF10602FF260D4612F8013B0F
:106A000003EB4303C41801310529C6546570A57012
:106A1000F4D100250DF10B012B46FF2411F8012BB9
:106A200002EB420286180135052D83547470B37051
:106A3000F4D10470447084708374C374037504B01B
:106A400070BD00BFE8DC0308EEDC030870B571B16F
:106A5000124A034600F1240114781C7054785C70CB
:106A600094789C7003338B4202F10302F4D10478D2
:106A700041788278034600F12105DE781E701E7988
:106A80005E705E799E700333AB42F6D180F8214090
:106A900080F8221080F8232070BD00BF22DD03089B
:106AA00070B599B10C2216491546B2FBF5F305FBFA
:106AB000132303EB43030E78C654C4184B7863705A
:106AC0008B78A370013A01F10301EED190F82140D7
:106AD00090F8221090F823200346A0F121059E7F14
:106AE00083F82160DE7F83F8226093F8206083F8CA
:106AF0002360033BAB42F2D104704170827070BDE1
:106B0000FEDC030837B5044611B1174B00221A60AA
:106B100016480191FFF7B6FE01991548FFF7C0FF2F
:106B20001249134A2046243413780D785B0803EB8E
:106B30005503037053784D785B0803EB550343709E
:106B400093788D785B0803EB550383700330A04284
:106B500001F1030102F10302E6D1034A1368013394
:106B6000136003B030BD00BF7C23002080230020D1
:106B7000A423002030B500F1240439B103460022DB
:106B80001A705A709A700333A342F9D10D4A1368F0
:106B9000092B4FF000010EDCDD070CD5FF2501703D
:106BA000417085700330A042F9D10133132BC8BF67
:106BB0000023136030BD0170417081700330844246
:106BC000F9D1F2E7D82300200D4B0E481988B0F90F
:106BD0000020114489B2B1F57A6F198007D9524269
:106BE00002804FF47A621A8018880AF0DBBCB1F593
:106BF000FA6FF9D2524202804FF4FA62F3E700BF13
:106C000090100020921000202DE9F043674B684D52
:106C10001B682A68674C6849684E9342684A4FD09F
:106C2000DFF8A48194ED007AD8ED007ADFF89CE1DA
:106C300091ED006ADFF898C1624FDFF89C912B60FC
:106C4000C7EE276AD9F80090C8F80090C3F3074848
:106C5000C4F80090F7EE007A77EEE67A9EED007ABF
:106C600027EE877AA6EE267A92ED006A81ED007A09
:106C70009CED007A27EE877AA6EE267A82ED007ADE
:106C800097ED007A67EE877A96ED007AE7EE267A3E
:106C9000C6ED007A07EE908AF8EEE77ACEED007A3C
:106CA000C3F3072E07EE90EAF8EEE77ACCED007A10
:106CB0005FFA83FC07EE90CAF8EEE77AC7ED007A38
:106CC000D4ED007AF5EEC07AF1EE10FA00F1240569
:106CD0003FDD3D4B91ED006A93ED007A3B4BC7EEF3
:106CE000876AF7EE007A77EEE67A93ED007A384B12
:106CF00027EE877AA6EE267A92ED006ABDEEC77A75
:106D000017EE101A93ED007A2E4B27EE877AA6EE37
:106D1000267ABDEEC77A17EE102A93ED007A67EE59
:106D2000877A96ED007AE7EE267AFDEEE77A17EE9F
:106D3000903A01704270837003308542F9D1D4EDEE
:106D4000007A9FED247A77EEC77AC4ED007ABDE829
:106D5000F08300272760C3F3074406EE904AF8EE5D
:106D6000E66AC1ED006AC3F30721DBB207EE101A31
:106D700007EE903AB8EEC77AF8EEE77A82ED007A3D
:106D8000FCEEE66ABCEEC77AC6ED007AFCEEE77A66
:106D900016EE901A17EE102A17EE903A0170427014
:106DA00083700330A842F9D1D1E700BF042300204B
:106DB00070060020FC05002004060020F8050020D5
:106DC00000060020C8230020F4050020D023002066
:106DD000CC230020CDCC4C3D5C06002037B50446CA
:106DE00028F005FA07EE900ADFED1D6A9FED1D6A97
:106DF000B8EEE77ADFED1C7AE7EE267A204600252A
:106E00002434FCEEE76ACDED016ADFED186A9DF8E7
:106E10000420E7EE066ABCEEE67A17EE103A9FED24
:106E2000147AF4EEC76AF1EE10FAC8BF4FF0FF33E0
:106E3000DBB2F4EEC77AF1EE10FA0EDCF5EEC07AB2
:106E4000F1EE10FA4CBF00211146017043708570BD
:106E50000330A042EDD103B030BDFF21F5E700BF04
:106E6000C9C8C8BEC9C8C83E0000C842000000006A
:106E700000007F43F8B5224E224F336801330546A8
:106E800009D12149214818F01DF9214930602148D4
:106E900018F018F938602BF0E1FA0446308818F041
:106EA0002DFD241AA4B21E2C388828BF1E2418F0E9
:106EB000A5FC40B2184B1949032808BF012204EB76
:106EC0004406A4EB840408BF1A7064340A681F786F
:106ED0002846F6B2E4B2243500236FB1092A0BDC50
:106EE00003704370837003308542F6D10132132A58
:106EF000D8BF13460B60F8BD06704470F2E700BFC0
:106F0000680600206C06002095C503089FC503088D
:106F100075D8030845C20308A8220020DC230020FE
:106F200073B520490446204818F0CCF818F0E6FC68
:106F30001E4905461C4818F0C5F818F0B7FCDFEDEF
:106F40001C7A9FED1C7A30EE670ADFED1B7AE0EECB
:106F5000077A9FED1A7AF4EEC77AF1EE10FA19DC8F
:106F6000F5EEC07AF1EE10FA16D4FCEEE77ACDED2C
:106F7000017A9DF80420234604F124006421D443BF
:106F800000265DB11C705A709E7003339842F8D190
:106F900002B070BDFF22EEE70022ECE719705970D5
:106FA0009970F2E7EAC203080BC30308E5C20308BD
:106FB0000000AA423333A3C00000000000007F435A
:106FC000F7B531490446314818F07CF818F06EFCEA
:106FD0002F4A30499FED307ADFED305A9FED305A1D
:106FE0002046154624340E46B0EE476A0027D2EDFF
:106FF000007AD1ED006A76EEE76A70EE677AC5EE48
:10700000A64AF0EE476AE4EEA76AF4EEC76AF1EE2C
:1070100010FA30DCF5EEC06AF1EE10FA2DD4FCEE79
:10702000E67ACDED017A9DF8043003704770D5ED16
:10703000007AD6ED006A76EEE76A70EE677AC6EE01
:10704000264AF0EE456AE4EEA76AF4EEC66AF1EE6F
:1070500010FA14DCF5EEC06AF1EE10FA11D4FCEE71
:10706000E67ACDED017A9DF80430837003308442D6
:10707000BDD103B0F0BDFF23D7E70023D5E7FF2341
:10708000F3E70023F1E700BFA4C2030845C20308E9
:10709000580600206006002000007F4300007FC3E8
:1070A00000000000F8B5424E424D434F04463068A0
:1070B00000280FDA4149424818F004F8414930608D
:1070C0003F4817F0FFFF404928603D4817F0FAFF9E
:1070D0003860F8BD80B218F0E9FBFDEEC07A288870
:1070E00017EE906A18F0E2FBFDEEC07A388817EED2
:1070F000905A18F0DBFB354B9E423246B8BF1A4619
:10710000B2F5007FFDEEC07AA8BF4FF400729D4239
:1071100017EE900A2946B8BF1946B1F5007FA8BFFF
:107120004FF400718342B8BF0346B3F5007FA8BF98
:107130004FF40073002EACBF01264FF0FF36002D38
:1071400002FB06F2ACBF01254FF0FF35002801FB22
:1071500005F1ACBF01204FF0FF30092A03FB00F31B
:10716000CCBF521000220929CCBF49100021092BA5
:107170002046CCBF5B1000232434B3F5807F14BFBE
:107180001D46FF25B1F5807F057014BF0D46FF2514
:10719000B2F5807F457014BF1546FF25857003301A
:1071A000A042EAD10A4A13780133137091E700BF75
:1071B00064060020082300200C2300202BF903087C
:1071C0006DC303089BCB03089FD4030800FEFFFF99
:1071D000D4220020F8B5434F434E3B78434D2DED6C
:1071E000028B04465BB94249424817F06BFF4249A3
:1071F0003060404817F066FF012328603B703088FC
:1072000018F054FB2888F0EE408A18F04FFBB5EEDA
:10721000400AF1EE10FAB0EE408A5FD088EE880A9C
:1072200034F01EF9DFED357AB5EEC08AF1EE10FAD2
:1072300070EE277A03D59FED327A77EE877A28EEC3
:10724000088AF2EE086AA8EEA88A2046002267EEB5
:10725000A67A9FED2C7AC7EE875AB1EEC87ADFED99
:107260002A7AB4EEE77AF1EE10FAD4BFBDEEC77A0F
:107270009FED267AB8EEC77AF0EE047A87EE276A99
:10728000B1EE085AB1EE466A07EE902AF8EEE77AB8
:10729000F0EE474A75EEE77A0132F0EEE77AF4EE67
:1072A000C57AF1EE10FAC8BF76EEE77A0330E6EE63
:1072B000274AFDEEE47A17EE903AFF2BDABF23EA75
:1072C000E373DBB2FF230C2A00F8033C00F8023C16
:1072D00000F8013CD8D1BDEC028BF8BDDFED0C7A93
:1072E000ADE700BF12230020702300207823002088
:1072F00007D20308DAC80308FDD10308DB0FC93F32
:10730000DB0F4940DB0FC94000007F43FF00000056
:1073100000000000002110B50B481DF02BFB0B4BAB
:107320000B481B78102163B110F024F8094C237826
:1073300033B1012323722BF091F800236060237096
:1073400010BD10F019F8F1E719770008102300209C
:10735000000402405823002008B50B4611461A18B5
:10736000282A06D81A46044B184433F0A2FB012001
:1073700008BD0020FCE700BF3023002008B503460D
:107380001046CA18282A06D80A460449194433F078
:1073900090FB012008BD0020FCE700BF3023002047
:1073A00008B50B4611461A18182A06D81A46044B77
:1073B000184433F07EFB012008BD0020FCE700BF2D
:1073C0001323002008B503461046CA18182A08D807
:1073D0000A460549194433F06CFB003818BF0120F8
:1073E00008BD0020FCE700BF1323002041B100F1DD
:1073F0002402002303704370837003309042F9D15C
:107400007047000070B5234B09B100221A6093ED5C
:10741000007A214C214DF7EE007AB4EEE77AF1EED6
:1074200010FA44BFDFED1E7A77EE277AC3ED007ABB
:10743000237803EB43016A186E5C5578917800F16C
:10744000240206704570817003309042F9D1154DC9
:107450001548297802780131C9B20132D2B2042923
:107460002970027009D90021013329700321B3FB6F
:10747000F1F101EB41015B1A23700C2A09D90B4A87
:10748000002303701378B3FA83F35B091370084A7F
:10749000137070BDD8220020D52300207CDD0308A6
:1074A000CDCC4C3DD423002011230020D623002036
:1074B00010230020F0B52DED028B044683B049B1B6
:1074C000034600F1240100221A705A709A700333A7
:1074D0008B42F9D1694F6A4E3B686A4D002B12DA34
:1074E00069496A4817F0EEFD69493060674817F04E
:1074F000E9FD68492860654817F0E4FD386003B08D
:10750000BDEC028BF0BD308818F0D0F92888B0EEC1
:10751000408A18F0CBF9FBEE047AB4EEE78AF1EE7C
:1075200010FAB3EE047A00F18D80B4EEC78AF1EE62
:1075300010FA00F38A80F1EE486AB4EEE70AF1EE41
:1075400010FA00F18580B4EEC70AF1EE10FA00F3EC
:107550008280B1EE400AF5EEC06AFFEE007AF1EEED
:1075600010FAB7EE007AB5EEC00AB4BFB0EE676AA3
:10757000B0EE476AF1EE10FAB8BFB0EE677A26EEC9
:10758000866A60EE077A66EE266A27EE800AF2EED9
:10759000047A36EEA76A9FED407AB4EEC76AF1EE40
:1075A00010FA5BDCB5EEC06AF1EE10FA58D4BCEE0E
:1075B000C66A8DED016A9DF8043084F8213037EEFB
:1075C000C06A2370B4EEC76AF1EE10FAE37049DCCA
:1075D000B5EEC06AF1EE10FA46D4BCEEC66A8DED87
:1075E000016A9DF80430237277EEE66AE372F4EEE6
:1075F000C76AF1EE10FAA37338DCF5EEC06AF1EE5B
:1076000010FA35D4FCEEE66ACDED016A9DF804303F
:10761000E37370EE277AA374F4EEC77AF1EE10FAF2
:10762000637527DCF5EEC07AF1EE10FA24D4FCEE97
:10763000E77ACDED017A9DF80430A376637784F87C
:1076400020305CE7F0EE476A77E7F0EE676A74E7B0
:10765000B3EE040A7FE7BBEE040A7CE7FF23ACE746
:107660000023AAE7FF23BEE70023BCE7FF23CFE701
:107670000023CDE7FF23E0E70023DEE778060020C4
:107680006C2300207423002007D20308DAC8030803
:10769000FDD10308B9CE030800007F437FB5174E24
:1076A00035784DBB08F02AFB154B1648ADF80E5047
:1076B00012221A600124102302A902938DF80C40B3
:1076C0000FF00AFE104818F061F9104818F05EF942
:1076D0000F4B34702246322100930E482B462BF07C
:1076E0006FFF06462AF0BAFE642302460093214645
:1076F0002B4630462BF0D6FF04B070BDA7200020EB
:1077000064230020000402406CDD030888DD0308C8
:1077100015730008F4DC030810B51B4B1B4A1B68EB
:107720001268934205D91A480C21BDE8104008F0B0
:107730009BBB184A184C11681360184A184852F835
:107740002320C91A18BF01219047237A73B12AF068
:1077500085FE616840F2DB53401A984209D9002146
:10776000217261600E48242233F0BAFB0C480C21D0
:10777000DBE74FF49673B0FBF3F103FB11016429CF
:1077800094BFFF210021EDE70806002064230020BC
:10779000A922002000230020582300200C060020EE
:1077A000DC2200202DE9F04F2DED028B814695B0B3
:1077B00009B3A44A034600F1240100241470547054
:1077C0009470033303F8034C03F8024C03F8014CA4
:1077D000994202F10302F1D19B4B00221A600DF095
:1077E000AFFC00234FF47A7233F05EFE974BC3E98F
:1077F0000001974B1C60DFF858B2DFF85CA2DBF8A1
:1078000000300AEB8302013351680A910AEB8301CD
:107810001AF823804D788E7845EA0803334300F048
:10782000A881D7790DF08CFC4FF47A72002333F0E5
:107830003BFECDE90001DFED876ACDF81CB007F013
:107840000F0440F20F2E7F09804BD3E9002328213B
:10785000CDE90223C1FB8823CDE90423EB0003F02B
:107860003803E90843EA561340F20315DDE900BC8A
:107870006B4306F01F02DDE904560EFB01F10EFB1F
:1078800002F2664501F1170103F1210302F117022B
:1078900008BF5D45C1F38711C3F38713C2F3871295
:1078A00072D30BAD674E8DF825108DF826308DF80C
:1078B000272028464FF0000C96F800E080F800E002
:1078C0000CF1010C96F801E080F801E0BCF10C0F1E
:1078D00096F802E080F802E006F1030600F10300EA
:1078E000EAD19DF82B0064F3030067F347108DF88D
:1078F0002B00C6B2C00640F14181009B029A981A43
:10790000019B039A63EB020133F0AAFA82464FF41B
:107910007A7000FB08F81920B8FBF0F08B4632F0C3
:107920006DFF02460B465046594633F010FA33F0CD
:1079300025FC16F00F0206EE900AF7EE007A00F032
:107940008D8037EEE67A3F4D0DF1250104EB4404BE
:1079500000220BA811F8013B07EE903A635DF8EEA8
:10796000E77A06EE103A67EEA67AB8EEC66A0132FA
:10797000E7EE067A032AFCEEE77A17EE903A2354F4
:1079800004F10104E6D18EE09DF82B5064F3030569
:1079900067F34715EEB215F00F054AD1294C217057
:1079A00001350C2D6370A27004F10304F7D116F0B9
:1079B000E00F19D007EE908AF8EEE77AB3EE097A75
:1079C00067EEA67A4FF47A7387EE876A5F431E4BA1
:1079D00007EE907AF8EEE77A86EE277AD3ED007A12
:1079E00077EE277AC3ED007ADDE90412174BC3E97D
:1079F0000012079B079A19684B1C13600AEB83035C
:107A000002315A680A92DF791AF821800AEB810262
:107A100007F00F04557896787F09B8F1000F7FF4CE
:107A200013AF002D7FF410AF002E00F0A280A84607
:107A30000AE7044D04EB44042846254401556B70C5
:107A4000AA70B4E7E42300200824002010240020BA
:107A5000E023002000007A442C23002037EEE67A51
:107A6000524B0DF1250403EB020CA81800211CF861
:107A7000013B06EE103A14F8013B07EE903AF8EE9F
:107A8000E77AB8EEC66A67EEA67A0131E7EE067AC3
:107A90000329FCEEE77A17EE903A00F8013BE6D1B5
:107AA0000332242ADCD1424B16F0E00F93ED008A1A
:107AB00015D0009B029A981A019B039A63EB02016E
:107AC00033F098F94FF47A735F4307EE907A07EE3C
:107AD000100AF8EEE77A87EE277A38EE078AF2EE98
:107AE000087A28EE278A0C20FDEEC87AB7EE007AD5
:107AF00017EE905AF8EEE77A002638EE678A95FB83
:107B0000F0F337EE487A00FB13553446013D01345B
:107B10002A1992FBF0F300FB132303EB4303B4FB9E
:107B2000F0F200FB12424B440BA902EB42070F4458
:107B300003F1FF3CA2EB82010233CA19925D06EE0B
:107B4000902A17F8012B07EE902AF8EEE77AF8EE64
:107B5000E66A67EE277AE6EE887AFCEEE77A17EEB9
:107B6000902A0CF8012F6345E7D10C2C06F103068F
:107B7000CDD115B0BDEC028BBDE8F08F16F00F0033
:107B800008D101300C2829706B70AA7005F103052B
:107B9000F7D188E704EB440414A8044404F8241C37
:107BA00004F8233C04F8222C7DE700BFE4230020E6
:107BB000082400201FF0F4B973B5134E34780CBBC1
:107BC0001FF0C4F90323114900934FF49672234622
:107BD0000F4801942AF0C4FA0E4B01930E4B009308
:107BE00001222346C8210D482BF018FD05462AF036
:107BF00035FC234602460094012128462BF052FD15
:107C00000123337002B070BDA8200020BCDD030842
:107C10006D70020818240020B57B0008BFDD030842
:107C200008B5044B1B6802215B689847024B18603B
:107C300008BD00BF88060020CC26002008B5044BF4
:107C40001B6801215B689847024B186008BD00BFA4
:107C500088060020CC26002008B5044B1B680321B1
:107C60005B689847024B186008BD00BF880600207B
:107C7000CC26002008B5044B1B6804215B6898479C
:107C8000024B186008BD00BF88060020CC260020EB
:107C900019B9044B28221A8070470129FCD1014BE5
:107CA0000822F8E7DC06002010B5044C22781AB947
:107CB0000349044826F016F8207810BDA9200020BA
:107CC000ECDD030869C3010808462AF02DBD000059
:107CD00070B586B0FCF780FF0B2102200FF0F4FD99
:107CE00001244FF4006304A80493ADF814308DF818
:107CF00016400FF099FA3F4B3F4E18782146FCF79B
:107D0000F5FE3E4B1D7821462846FCF7EFFE3C4B26
:107D100000211878FCF7EAFE00212846FCF718FF3E
:107D20000A202AF001FD21462846FCF711FF0A200F
:107D30002AF0FAFC334934482CF0C2F832482CF0CF
:107D400021FB054638B1002330493148337025F016
:107D5000C9FF06B070BD2C482CF01EF9002200238C
:107D6000CDE902232848DDE902232DF066FA2949EE
:107D700025482DF05AFA284923482DF058FA27496A
:107D800021482DF056FA26491F482DF054FA1E4876
:107D90002CF099FB1C482CF007FE22491A482CF0C5
:107DA000E7FD194802212CF051FC174809212CF05D
:107DB00055FC154821462CF0A3FB42F210711248E5
:107DC0002CF010FA10482DF0B7F9174817F0DEFD27
:107DD000204629F040FC154B15491860154B0193BE
:107DE0000323009314482B464FF4E1722AF0B8F9AC
:107DF0003470AEE74DB70308A920002052B703083E
:107E000051B70308AC060020A024002013DE0308AD
:107E100069C30108217C00083D7C0008597C0008EA
:107E2000757C0008314704089CDE03089C24002070
:107E300036DE0308D02700206D7F00082DE9F843C7
:107E40001E46164BDDF820901888154D14460F4637
:107E5000FCF7D0FF134B93F8008000214046FCF75D
:107E600077FE22463946284632F023FE4A463146FE
:107E7000281932F01EFE0C4A294604EB0900FCF7D3
:107E800047FF01214046FCF763FEFCF7C3FF074AAA
:107E9000936801339360BDE8F88300BFDC060020DF
:107EA000082600204DB7030844250020E0060020E6
:107EB0002DE9F8431D46194B089E1888184F1446A3
:107EC0008846FCF797FF174B93F80090002148462F
:107ED000FCF73EFE41462246DFF85080384632F03D
:107EE000E8FD32460021381932F0FAFF42463946A1
:107EF000A019FCF70DFF324608EB0401284632F0CA
:107F0000D8FD01214846FCF723FEFCF783FF064A13
:107F1000936801339360BDE8F88300BFDC0600205E
:107F2000082600204DB70308C00600204425002085
:107F300010B5094B094CD870094B53F83030236009
:107F400008481B689847236806485B6800219847E3
:107F5000054B1860012010BD7C060020880600201B
:107F60008C060020A0240020CC26002080B5002212
:107F700020210A2029F05CFA4C4B4D4C186000235C
:107F80004C4EE3701CF032FA4B4F354630684FF0E0
:107F9000FF3129F0E7FC94F80290B9F1000F5CD1B1
:107FA0002AF05CFA6379804663B194F804A0BAF1D0
:107FB000000F31D000F57A70A0600220FFF7B8FF03
:107FC00084F804900023DFF8089128681A461946BF
:107FD00029F066FAD9F80020012100202AF0DAFF02
:107FE000804600284ED0DFF8E490DFF8E88028686B
:107FF0004FF0FF3129F0B6FC48462DF0C5F80023BC
:1080000028681A46194629F04BFA98F80000FCF740
:10801000ADFD0028EBD1B9E7A3689842D2D9274B30
:108020001B689B689847E37848B107EBC303244972
:108030005A6884F805A0234825F054FEC2E70133AE
:10804000D8B2042828BF012008F57A73A360431E24
:10805000022BB7D8FFF76CFFB4E740F20113A380FF
:10806000E3784B45AED009F1FF33022BAAD848463E
:10807000FFF75EFF0028A5D0E378134907EBC303A1
:108080005A68D8E728684FF0FF3129F06BFC0B4B9A
:108090000E481B6841465B6898474346C9F8000094
:1080A00042462868414629F0FBF96FE74025002049
:1080B0007C0600209C2400208C06002088060020DE
:1080C0003ADE030869C301085CDE0308A02400202F
:1080D000CC26002051B70308F8B50D4B1C78054697
:1080E0000E4694B10B4F4FF0FF31386829F03AFC3F
:1080F000094B1B683146DB68284698470023044635
:108100001A463868194629F0CBF92046F8BD00BF59
:10811000A92000209C24002088060020F8B50D4BE3
:108120001C7805460E4694B10B4F4FF0FF3138686E
:1081300029F018FC094B1B6831461B6928469847F3
:10814000002304461A463868194629F0A9F9204642
:10815000F8BD00BFA92000209C2400208806002034
:10816000F8B50D4B1C7805460E4694B10B4F4FF0F9
:10817000FF31386829F0F6FB094B1B6831465B6913
:1081800028469847002304461A463868194629F0BD
:1081900087F92046F8BD00BFA92000209C240020BC
:1081A0008806002038B505460948007878B1094CA2
:1081B000A01C6270257032F07CFC074800231A4630
:1081C0000068214629F06CF9431E5842584138BDD9
:1081D000A9200020002500204025002008B5054BDF
:1081E00001460022186829F015FB431E58425841E9
:1081F00008BD00BF4025002007B50A4B00211868C4
:10820000019101AA2BF0A8F8019B3BB1064B4FF05E
:1082100080521A60BFF34F8FBFF36F8F03B05DF8CA
:1082200004FB00BFD027002004ED00E070470000F1
:10823000014B188880B270477C060020014B1880E3
:10824000704700BF7C060020014B1878704700BFC4
:108250004A280020014B1879704700BFE42800200D
:10826000014B1878704700BF4B28002013B5044617
:1082700001912AF0F3F8019A03460348214602B01F
:10828000BDE8104027F049BFD090001013B5044658
:1082900001912AF0E3F8019A03460348214602B00F
:1082A000BDE8104027F039BFD090001070B50A4BE0
:1082B0000A4C1D68002201461046AB6854F8046B56
:1082C0009E42BCBF0A54431C02F10102B8BFD8B29F
:1082D000082AF2D170BD00BFAC0800204C2A002053
:1082E0000A460146014827F003BF00BFD0900010A6
:1082F0000A460146014827F0FBBE00BFD09000109F
:1083000003460020185401300828FBD170470000B4
:1083100037B504460D462AF0A1F8214602466B46C1
:10832000054827F0D2FE044618B12946684627F0D2
:108330001FFF204603B030BDD090001037B5044673
:108340000D462AF08BF8214602466B46054827F079
:10835000BCFE044618B12946684627F009FF2046AE
:1083600003B030BDD090001010B507289FBF064B5A
:108370001B6803EB001058300C4697BF0FC8002055
:1083800084E80F00012010BDAC08002000000000B0
:1083900038B505462AF062F89FED0D0B0E4A0146EE
:1083A00002230E4827F006FC0D4B00241C700D4BD9
:1083B00020461C70FFF742FF42F2107128462BF056
:1083C00011FF28462CF0B8FE074B1C7038BD00BFCB
:1083D0000000000030C12D4249840008D0900010F8
:1083E00049280020482800204A28002000000000DA
:1083F00010B504462AF032F80F4A01239FED0C0B0A
:1084000001460E4827F0D6FB4CF2503120462BF0A7
:10841000E9FE20462CF090FE094B0A4A1A60012220
:1084200083F8252000221A7110BD00BFAFF3008031
:108430000000000030C12D429D840008D090001043
:10844000E42800209A99193E70B5124B8CB01B6835
:1084500083620546002306468DF800300FCD01AC3F
:108460000FC40FCD0FC495E8070084E807006846E5
:1084700024F058F896F8203096F82120013303F0C4
:108480000703934201BF044A02EB8303726A1A6036
:108490000CB070BDB00800200428002030B50C4B93
:1084A00093F825208DB08AB11B68836204460023AF
:1084B0008DF800300FCC01AD0FC50FCC0FC594E87F
:1084C000070085E80700684624F02CF80DB030BDA1
:1084D000E4280020000000002DE9F04F984943F205
:1084E0008842B3B08B5801338B5007462CF0E7F825
:1084F0000DF133010246064638462CF0FEF89DF891
:108500004830222B40F005818E4B109C93F8009050
:10851000E4B2B9F1000F53D0DFF8448298F800308C
:10852000A34240F0F380884D38462BF0E6FE2B78CE
:1085300098F8012023F07F0343F041032B706B7800
:1085400003F0030363F023036B7008F10201F023CF
:1085500005F116006B7532F0ACFA7C4B00221B68FB
:10856000AA73EA732A746A74AA7498F800206FF0E8
:1085700043014FF0FF3C297129756FF0300003EB88
:10858000C20185F80DC0E870E87453F832204B68DA
:10859000C5F809303846C5F805202CF01EF93846D4
:1085A0002CF002FA98F801202946163238462CF0B1
:1085B00064F8384601212BF09BFF38462BF055FF1D
:1085C0000022002308A93846CDE908232CF0BCF985
:1085D000072C00F2978029F041FF0246DDE90801EF
:1085E000A31CCDE9040132A901EB83030AAF53F8C0
:1085F0007FBC53480B462344214613F87F3C03F0CD
:108600007F0306933B4627F0FAFA384627F09BFD96
:108610004FF0000A804655463846E9B2884535D0C5
:1086200032AAAB1C02EB830353F87F2C62B132AB4E
:108630002B44079113F87F3C03F07F030093002342
:1086400027F0F8FD07990AA832AA05F1140302EBF6
:10865000430333F87F2C93B2C3B192B2002327F0C7
:1086600041FE3B4B1B785A1C02F0070242450AA808
:108670000CD132AA143302EB430313F87F2C13F806
:108680007E3C42EA0323334A22F818300135082D94
:10869000C3D1DDE904233946CDE9002328482E4D16
:1086A0005A46002327F062FC069B02933846DDE918
:1086B0000423CDE900BA27F078FD384627F086FD7F
:1086C00051EC100B32F05AFD05EB8405204B28606D
:1086D0004E3E002E1C7012DD9DF88130F02B0ED125
:1086E0001A4B10981B681199A3F108023833F2E96C
:1086F0000245A94208BFA0420ED09342F7D1174BC2
:1087000001221A70484633B0BDE8F08F4FF00009DF
:1087100056E74FF00009F5E79DF88230012BEED1C6
:10872000DDF88B3001EE103ADDF8873000EE903A3C
:10873000DDF883300AA800EE103A27F02CFDDEE7C2
:10874000D0900010482800204C280020A8080020C5
:1087500049280020D4270020E42700204A280020B0
:10876000242800202DE9F04F43F28842514CA358B1
:108770000133B1B0A35007462BF0A1FF0DF12B013F
:108780000246054638462BF0B8FF0023002206A912
:108790003846CDE906230E9E2CF0D6F89DF84030E1
:1087A000302B51D19DF84130DDF8428003F07F033A
:1087B0000493DDE906AB29F051FEF1B2024608ABA5
:1087C000204627F01CFA00273E460DF147049DF88D
:1087D0004620F3B29A423AD810ABE41A0023CDE90E
:1087E0000233424608A9CDE900AB324827F018FA17
:1087F000153D049B0293CDE9008752465B4608A8CD
:108800002D1B27F0D2FC002D1BDD30AB234413F8C9
:10881000802CF02A15D113F87F3C012B11D10DF1DA
:108820002B031C4408A8D4F81F3001EE103AD4F8EA
:108830001B3000EE903AD4F8173000EE103A27F0D3
:10884000AAFC1D4B01221A7131B0BDE8F08FD4F89B
:10885000022021784AB16378059103F07F030093E9
:1088600008A8002327F0E6FC059994F90130002BB5
:108870001DDAB4F8069000231FFA89F252EA0300C9
:1088800012D008A8059127F02DFD08A827F05BFC61
:108890000A4B05991B78834206D1094B1B788B4202
:1088A00004BF084BA3F80090083401368FE7063464
:1088B000FBE700BFD0900010E4280020F8C50010AE
:1088C000F9C500101CC600102DE9F04F2DED088BE6
:1088D0000022B7B00023CDE9022304462BF0EFFEBF
:1088E000054608B9002023E0DFF854A31522002133
:1088F0000DF1430032F0F4FA2A460DF1430120460F
:108900002BF0FBFEDAF8006013991298D6E90423E5
:10891000994208BF904257460FD020462BF04CFF9B
:1089200020462CF041F820462BF086FD4FF0FF301A
:1089300037B0BDEC088BBDE8F08FDFF81483149AD4
:10894000159BC8F811109DF85810C8F80520022989
:10895000C8F80930C8F80D0000F0F9800429E5D105
:10896000AD4B9DF859201B789A42BBD1AB4BDDF83B
:108970005A009DF85E2018601A71A94B9DF863207B
:10898000DFF8D0B21A710746DDF85F0018609DF875
:1089900068308BF80430A34B04461D681998A24B2D
:1089A000CBF8000006461868281A31F0A5FF41EC04
:1089B000180BE01B31F0A0FF41EC190B301B31F01C
:1089C0009BFF9A4B9A4E41EC1A0B1868401B31F0F2
:1089D00093FF53EC1A2B41EC1B0B51EC180B32F0AC
:1089E000B4F953EC1B2B8046894651EC190B32F03D
:1089F000ACF902460B464046494632F041F953EC89
:108A00001A2B8046894651EC180B32F076F953EC5C
:108A1000192B32F072F953EC1B2B32F06EF902462F
:108A20000B464046494632F092F9824D76A3D3E98F
:108A3000002332F08CF976A3D3E9002332F085F9D4
:108A40002C7832F09BFB06EB84074FF084083860EB
:108A5000DDF871203A62784F08FB047204EB44148D
:108A6000D2F88030013303F01F03C2F8803007EBE7
:108A7000840001AA202127F07BFF28786B4C00EBB3
:108A800040106A46202107EB800027F059FF2B7821
:108A9000DDED007A08FB037803EB4312D8F8801071
:108AA0000A4407EB820706EB8306644A96ED007AD8
:108AB00001211170DAF8002087ED007A77EEC77A8D
:108AC00092F8D810F0EEE77A19B902EB0311896D2C
:108AD00001B3DDED016AB1EE006A66EE866AF4EE7E
:108AE000E76AF1EE10FA15DD02EB03110A46C86DD4
:108AF000526E096E059003268DF8203004A84FF0C1
:108B00007A538DF81060069107928DED097A0A93D9
:108B100023F008FD4A4B1B6893F8D9309BB12B78A2
:108B20008BB9DBE9000100F060431B1AD4E9002097
:108B300061EB0101434DD31840EB0101C5E9003160
:108B4000414B01221A70414B01221A70CAE6324988
:108B50009DF85900097888427FF4C4AE153D032D75
:108B60000FDD9DF85A10F0290BD106F1180C0025E5
:108B7000FCE802018B4208BF824231D00135082D4A
:108B8000F6D102AD032388F8153029469DF85930F7
:108B900088F8163020462BF0D7FE3B68D3E9000258
:108BA0004308510843EAC273029AD31A039A62EB4C
:108BB0000102CDE9023295E803001A4B83E8030075
:108BC00020462BF00AFE1722204621492BF055FDA6
:108BD000204601212BF08CFC20462BF046FCA5E61C
:108BE0009DF85B30012BCCD129F038FC06EB051643
:108BF0003B68B06503EB0513179ADA65189A1A6695
:108C0000199A5A66BDE700BF0000000030C12D422E
:108C10000000004A78DEB141B8290020E829002090
:108C2000B0290020A8290020F0290020D029002008
:108C30000C2A0020B9290020F00100104B28002048
:108C4000AC080020D8290020C82A0020082A0020CB
:108C50000E220020C829002070B50446042934D80B
:108C6000DFE801F02A03222A2A00FFF735FC1A4E1A
:108C70001A4D40B1002333701948FFF7AFFA0023B3
:108C800030702B6010E020462BF096FD20462BF034
:108C90008BFE20462BF0D0FB2B680133272B2B605B
:108CA000E8DC3378002BE7D029F0D8FB0020FFF771
:108CB000C5FA4FF0FF3070BD2BF07EFD20462BF043
:108CC00073FE20462BF0B8FBEEE70649064840F25B
:108CD000071224F06BFBE7E7482800204428002017
:108CE00024280020ECDE03083BFE03080129F8B528
:108CF00005461AD002D90239022919D829F0AEFB4B
:108D00002E4E01462E4827F079F9701DFFF766FABE
:108D1000A8B928462BF050FD28462BF045FE2846E2
:108D20002BF08AFB4FF4FA70F8BDFFF71BFDE5E767
:108D3000244925484FF4187224F038FBDEE7234C11
:108D400028462BF0DAFA2378B27923F07F0343F038
:108D500041032370637803F0030363F0230363701C
:108D6000F11DF02304F11600637531F0A2FE737952
:108D7000C4F805306FF030000022154BE0706FF042
:108D80004301E0744FF0FF3728462171A273E2736C
:108D900022746274A2742175C4F8093067732BF0D1
:108DA0001CFD28462BF000FEB279284616322146DB
:108DB0002BF063FC28462BF058FBB3E7E428002097
:108DC00050C5001052DF03083BFE03080C290020A9
:108DD0000000CFBC38B52F4B1C68D4F8DC30002B1A
:108DE000054605DA24F02CFD00F00100C4F8DC0093
:108DF000D4E90423D4F8DC10521843EBE173C4E93E
:108E00000423254B00219522184632F069F8234BA4
:108E10000024C3E90044224BC3E90044214BC3E9C9
:108E20000044214BC3E90044204BC3E90044204BDC
:108E30004122C3E9004402701E4B6FF023024270CE
:108E40006FF03002C2701C706FF043021A4B027157
:108E500020461C70FFF7F2F9184B19481C70194B8B
:108E6000202221461C7032F03BF820222146164871
:108E700032F036F820222146144832F031F84FF40F
:108E80007A7128462BF0AEF928462CF055F9104B94
:108E90001C7038BDAC0800200E220020F0290020F4
:108EA000E8290020B0290020A8290020D02900208E
:108EB000C8290020B8290020B9290020082A00204C
:108EC0000C2A0020C82A00202C2A00204C2A00202E
:108ED0004B2800202DE9F04FBF4B1A6887B005469C
:108EE0000C4698461AB929F0B9FAC8F80000042CC3
:108EF00000F26981DFE814F0330005000B006E0119
:108F00006E012846FFF7E0FC07B0BDE8F08F04AC27
:108F1000214628462BF0FCFBB04B1B68D3E900032D
:108F2000420842EAC3725908049B9B18059A41EB18
:108F30000202CDE90432AA4B5B7D012B07D0032B43
:108F40000BD0A84B187880F001004042DCE7A64B1C
:108F500094E8030083E80300F3E7A44BF8E7A44F89
:108F6000A44EFFF765F93A78A34B04463078002AFF
:108F700040F0AA809B4A1278002A40F0A580DFF8D2
:108F80005CE29FED9E0ADEF800E000F1100CDEF8D6
:108F900008E053F82C100122714502FA00F212B2D7
:108FA00024B2B7BF01319443144343F82C1014F09A
:108FB000AFFE32789249A4B28B5C01338B542046C9
:108FC000FFF73CF929F04AFAD8F8003003F57A7334
:108FD000984200F28B80DFF848B2814CDFF8FCA1A8
:108FE0005846FFF7FBF804F10D097E4B04F1050824
:108FF000002840F0AE801870DAF80030387093F82E
:10900000D9305BB17F4B1B7873B17F49D1E9003216
:1090100013F1005342F10002C1E900323378013309
:10902000DBB2072B337001D90023337028462BF0B5
:1090300064F9764A0123637513780133DBB2A375B3
:109040001370DAF80030D3E90412C9F8042032783A
:10905000C4F80D10033203EBC20153F83230C4F8E8
:10906000053028464B68C8F804302BF0B6FB28467C
:109070002BF09AFC17225A4928462BF0FEFADAF810
:10908000003093F8D920EAB15E4A1278D2B1D3F811
:10909000DC005D4BD3E900230421C1FB0023CDE9B3
:1090A000042322F4FF7222F0010202F500720492FE
:1090B00006AA12E9030002AB83E8030028460CCBA2
:1090C0002BF027FA012175E001228240144300F1C0
:1090D0001002002143F8221003EB800393ED000AF5
:1090E00014F016FEA4B23278494965E729F0B6F9C2
:1090F000434CC8F8000000214548DFF82881DFF81C
:1091000028E1DFED446A8C4614F8013B10F8012B8E
:109110001344DBB208F8013B8BB107EE902AB8EE9E
:10912000677A07EE903A27EE267AF8EE677A87EEAE
:10913000276AFCEEC67ACDED017A9DF804300EF870
:10914000013B0131082904F801CC00F801CCDBD146
:1091500041E7012228461A702BF0CFF8F0239BF844
:10916000012063750BF1020104F1160031F0A1FC3E
:10917000DAF80030D3E90412C9F804209BF8002083
:10918000C4F80D10033203EBC20153F83230C4F8B7
:10919000053028464B68C8F804302BF01EFB2846E3
:1091A0002BF002FC9BF801202146163228462BF0BA
:1091B00064FA002128462BF09BF928462BF055F93C
:1091C0004FF0FF30A0E61449144840F2AD1224F0ED
:1091D000EDF8F5E7002097E6BC2A0020AC08002057
:1091E0000E220020E0290020F0290020D0290020B4
:1091F000082A0020B92900200C2A00200000C07F86
:10920000BA290020C82A0020D8290020B829002027
:10921000C02A00200000C842B8DF0308E92B040878
:1092200020250020F8290020002A002030B589B030
:10923000002304468DF803300DF10301204610F0A1
:10924000C9FF012029F070FA9DF80330002BF3D0FC
:1092500001A9204610F0C0FF094B9DF81F201B8874
:109260001341DB0720464CBFBDF81C5047F6FF7585
:1092700010F0A7FF204610F086FF284609B030BD49
:10928000FC08002030B52DED028B83B01BF0AEF84A
:109290003348334C9FED338A10F093FF304810F081
:1092A00072FF314810F08DFF2F4810F06CFF2F48EF
:1092B00010F087FF2D4810F066FF2D4810F081FF59
:1092C0002B4810F060FF2B4810F07BFF294810F06E
:1092D0005AFF29F0C3F804F569750190642101A8CB
:1092E00029F0D8F92046FFF7A1FF07EE900AB8EE63
:1092F000E70A002080EE080A19F0B8F92846FFF7BF
:1093000095FF07EE900AB8EEE70A012080EE080A02
:1093100019F0ACF91548FFF789FF07EE900AB8EE8F
:10932000E70A042080EE080A19F0A0F91048FFF7B8
:109330007DFF07EE900AB8EEE70A022080EE080AE9
:1093400019F094F90B48FFF771FF07EE900AB8EE99
:10935000E70A032080EE080A19F088F9BEE700BF8B
:109360001006001000007A44B4090010580D0010D7
:10937000FC100010A014001013B504462020019228
:1093800008F0D8FC022029F0CFF92046074906F062
:10939000D7FB019A044630B10549064824F0A2FCE7
:1093A000204602B010BD0449F7E700BFC409002001
:1093B0001CE0030869C3010835E0030838B51A4DFD
:1093C0001A4C2B780BB1207838BD194B194A1B78F1
:1093D000194823701021FFF7CFFF2378174A184050
:1093E000207002211648FFF7C7FF2378154A18405E
:1093F000207001211448FFF7BFFF2378134A18405B
:10940000207040211248FFF7B7FF2378114A184017
:10941000207004211048FFF7AFFF23781840012384
:1094200020702B70D0E700BFCA2A0020C92A002074
:10943000AA200020DDBD030810060010E3BD0308CC
:10944000B40900103A380408580D0010E8BD0308AC
:10945000FC100010EDBD0308A014001037B50E4D30
:109460002C78B4B908F054FC6FF05701202008F0B4
:1094700057FC5721202008F079FC01232B7003238F
:10948000009306490648019423464FF4967228F04B
:1094900067FE03B030BD00BFAA20002050E00308E3
:1094A0008592000870B53D4E337833B13C493D4854
:1094B00024F018FC0024204670BD3B4B10212020D6
:1094C0001D7808F037FC39493948012206F06AF95D
:1094D0000446002848D03749324824F003FC2C4683
:1094E0000221202008F026FC30493348012206F0F2
:1094F00059F9054600283CD030492A4824F0F2FBAF
:1095000025460121202008F015FC28492C4801227D
:1095100006F048F9044688B32A49224824F0E2FBC1
:109520002C464021202008F005FC20492648012235
:1095300006F038F9054630B324491A4824F0D2FB26
:1095400025460421202008F0F5FB18492048012277
:1095500006F028F90446D8B11E49124824F0C2FB8F
:109560002C4601233370A6E71B490E4824F0BAFBB2
:10957000B6E71A490B4824F0B5FBC2E71849094879
:1095800024F0B0FBCDE71749064824F0ABFBD8E741
:109590001549044824F0A6FBE3E700BFCB2A0020CE
:1095A00078E0030869C30108AB200020C40900204B
:1095B000E42A00209FE00308CC2A0020D9E0030819
:1095C0002C2B002011E10308FC2A002045E10308B0
:1095D000142B00207DE10308BBE00308F4E003083E
:1095E0002AE1030860E1030899E1030807B51AF0CE
:1095F000FDFE1B481A4E1B4D1B4C002106F00CFAB9
:109600001948002106F008FA1848002106F004FA6B
:109610001748002106F000FA1648002106F0FCF970
:1096200028F01CFF0190322101A829F033F83046C0
:1096300006F045FA2880204606F041FA0E4B1880C5
:109640000A4806F03CFA0D4B1880094806F037FA34
:109650000B4B1880074806F032FA0A4B1880E2E7F5
:10966000E42A0020462B0020CC2A00202C2B0020AE
:10967000FC2A0020142B0020442B00204C2B00201F
:10968000482B00204A2B002037B50E4D2C78B4B95A
:1096900008F03EFB6FF05701202008F041FB5721F6
:1096A000202008F063FB01232B700323009306495D
:1096B0000648019423464FF4967228F051FD03B0FA
:1096C00030BD00BFAB200020F8D70308ED9500089F
:1096D000014B28221A807047E0310020014B0822FC
:1096E0001A807047E031002029F01EB808B5054BFC
:1096F0001888FBF77FFB044B00211878BDE8084071
:10970000FBF726BAE031002050B703080B460449A6
:109710008A681A448A600146024A1846FBF7F8BA7A
:1097200068090020912D00201FB50B4A8DF8070015
:10973000936801339360094A9368013393600DF194
:1097400007010DF10F020120FBF7E2FA9DF80F006F
:1097500005B05DF804FB00BF4C090020680900203B
:10976000074B10B5012104461878FBF7F1F914B145
:10977000FF20FFF7D9FFBDE81040FBF74BBB00BF50
:1097800050B7030838B50A4A93680B449360094BF5
:1097900005460C460A4618464FF0FF3131F0A0FB53
:1097A0002A4601462046BDE83840FBF7B1BA00BF63
:1097B0004C090020912D002010B5FBF70DFA074B46
:1097C00028221A80064B1C7801212046FBF78EF9CF
:1097D00020460121BDE81040FBF7BAB9E031002076
:1097E00050B7030808B5074B01221A70064B1868DA
:1097F00028F090FD054B0F211868BDE8084028F0BF
:10980000B1B800BF912F0020A0350020DC3100202E
:1098100010B5044C22781AB90349044824F062FABE
:10982000207810BDAC200020DCE1030869C30108EA
:1098300037B5194D2A7832BB184816F0A7F8012021
:1098400027F009FF164B1860012027F004FF154B85
:109850001860012027F0FFFE134B14491860012205
:1098600013480CF0DBFE044688B91249124824F074
:1098700039FA0123009311491148019423464FF40A
:10988000967228F06DFC01232B7003B030BD0D499A
:10989000094824F027FAF6E7AC200020ACDE0308E4
:1098A000D8310020AC2F0020DC3100203BFE030823
:1098B000502B002004E2030869C301081EE20308DC
:1098C000D1A0000825E20308014801F0B8BF00BF9D
:1098D0001C0900201FB50A4601910446014603AB4E
:1098E0000C480DF04EF8019A48B102460A490B485F
:1098F00024F0F8F90A4B00221A7004B010BD21467A
:10990000084823F0EFFF084A039993680B449360DB
:10991000F3E700BFB02F002041E2030869C301084C
:10992000902D00208C2D00200009002002680023CB
:10993000C0E90222C3800382704770B58388C4885F
:109940001B1B9BB29A4215D88E18B14204D1C38812
:109950001A44C280012070BDC36811F8014B1C700D
:10996000C3680568848801332C44A34208BF2B4692
:10997000C360EAE70020EEE72DE9F04F87B0054627
:10998000884616460BF0DCFB3E4B1B78CDE9040104
:10999000002B46D03C4C3D4F2368386801334FF0D4
:1099A000FF31236027F0DEFF394BDA88994622B178
:1099B000384B186808B128F0ADFCB9F80630B9F892
:1099C0000420D21AAB88334492B20A339A4222DB83
:1099D0002B882F48ADF80E3002220DF10E01FFF753
:1099E000ACFF2B48082204A9FFF7A7FF26B128489F
:1099F00032464146FFF7A1FFDFF89CA0DFF89CB09C
:109A0000DFF88C8005F106090026AB78B3420BDC49
:109A1000636801336360002338681A46194627F0EB
:109A20003FFD07B0BDE8F08F39F8023B01931846BF
:109A300015F07CFB0138019B06281BD8DFE800F0FD
:109A4000040E14040E141400184615F0C7FE01226B
:109A500001464046FFF771FF0136D6E7184615F07C
:109A6000BDFE02220146F4E7184615F0B7FE0422B7
:109A70000146EEE74FF403725146584623F096FC38
:109A8000EAE700BF902D002098350020AC2F002081
:109A9000982F0020A035002061E20308E92B04087C
:109AA000F8B50C4C054614F063FC616900222E26C3
:109AB000D3B28B4200D3F8BD7343E71801323F8B1A
:109AC0008742F5D118332A7CE968E018BDE8F840F0
:109AD000FFF752BFE431002010B5C3889BB1846802
:109AE0000C60C3689C4207D21B1B1380C368836051
